:100000000C9442000C945F000C945F000C945F0011
:100010000C945F000C945F000C945F000C947E08BD
:100020000C945F000C945F000C945F000C945F00D4
:100030000C945F000C945F000C945F000C945F00C4
:100040000C945F000C945F000C945F000C945F00B4
:100050000C945F000C945F000C945F000C945F00A4
:100060000C945F000C945F00FD0000010101DF00B3
:100070000401E200E500E800EB00EE00F100F4000E
:10008000F700FA0011241FBECFEFD8E0DEBFCDBFCE
:1000900011E0A0E0B1E0E6E5FAE102C005900D92C2
:1000A000A437B107D9F722E0A4E7B1E001C01D925F
:1000B000AF34B207E1F70E94D4080C94290D0C94D8
:1000C00000001092C50087E68093C40088E1809309
:1000D000C10086E08093C20008958091C00087FF30
:1000E000FCCF8091C60008959091C00095FFFCCF91
:1000F0008093C6000895CF93DF93EC018991882304
:1001000019F00E947400FACFDF91CF910895CF9239
:10011000DF92EF92FF92CF93DF93EC01072E000C5A
:10012000880B990B0E94A60A6B017C0120E030E04D
:1001300040E45FE30E94560B20E030E048E452E4E4
:100140000E94FC090E946E0AC617D707F4F020E04F
:1001500030E040EA5FE3C701B6010E94560B20E0A1
:1001600030E048E452E40E94FC0920E030E040E83E
:100170005FE30E948B090E946E0A21E030E06C1759
:100180007D070CF420E0C90102C080E090E0DF911F
:10019000CF91FF90EF90DF90CF9008956C597F4FF3
:1001A0000C948700645671090C94870001968E3078
:1001B000910530F58C5C9F4FFC010C9433092BE0CA
:1001C00031E024C026E131E021C02BE131E01EC046
:1001D00021E231E01BC028E231E018C023E331E026
:1001E00015C028E331E012C02FE331E00FC02CE44A
:1001F00031E00CC025E531E009C029E531E006C059
:10020000089526E031E002C021E131E0C9010895FE
:10021000CF93DF93DC011A96ED91FC911B978281BD
:100220009381885891098D35910568F48091430236
:10023000843029F48481958180974797D8F0809104
:100240004302843420F460E070E0CB014EC084812E
:100250009581825491098E97B0F7EF012696EA575F
:10026000FF4F40E050E0BA018881998109970997D2
:10027000E0F0E9CF868197810997099700F71996F1
:100280001C921E9218974FEF5FEFBA0114964D9390
:100290005D936D937C93179781E090E08D939C9391
:1002A00061E070E080E090E020C08A819B81469709
:1002B000419780F4440F551F661F771F41602496B5
:1002C000CE17DF0789F680E290E019969C938E9313
:1002D0001897DCCF8A819B810697079708F0B3CFE8
:1002E000440F551F661F771FEACFDF91CF91089506
:1002F000CF93DF93DC01809143028A3108F444C03C
:100300001A96ED91FC911B9780819181843F9140D9
:1003100090F419961C921E9218974FEF5FEFBA0156
:1003200014964D935D936D937C93179782E090E0C4
:1003300011969C938E938281938185974B9720F59C
:10034000369622E030E040E050E0BA01809143026E
:1003500090E0E9012196C817D9073CF4EF012297F4
:10036000888199810797079710F1215031093595B8
:10037000279519963C932E9318972C30310544F409
:1003800019961C921E92189760E070E0CB0127C06E
:1003900014964D935D936D937C93179782E090E054
:1003A0008D939C9361E070E080E090E018C08081C4
:1003B000918143970F9748F4440F551F661F771F8D
:1003C00041602E5F3F4F3496C1CF808191810A9763
:1003D0000997D0F6440F551F661F771FF2CFDF91A4
:1003E000CF910895CF93DF93DC01809143028A314E
:1003F00008F44DC01A96ED91FC911B978081918174
:100400008032934090F419961C921E9218974FEFE9
:100410005FEFBA0114964D935D936D937C9317979C
:1004200089E090E011969C938E9382819381C69788
:10043000869788F12CC08081918185974B9708F031
:1004400045C0440F551F661F771F41602E5F3F4F09
:1004500034968091430290E0E9012196C817D907AC
:100460003CF4EF012297888199810C970B9718F340
:10047000215031093595279519963C932E9318975D
:100480002C303105A4F419961C921E92189760E046
:1004900070E0CB0125C084819581C6978697B8F717
:1004A000389623E030E040E050E0BA01D2CF149615
:1004B0004D935D936D937C93179789E090E08D93B6
:1004C0009C9361E070E080E090E00AC080819181BF
:1004D0000C970A97E0F6440F551F661F771FB6CF9B
:1004E000DF91CF9108950F931F93CF93DF93DC019A
:1004F00080914302823208F44EC01A96ED91FC912D
:100500001B97828193810697079708F044C036961F
:1005100022E030E040E050E0BA0189010F5F1F4F58
:100520008091430290E008171907B4F4EF01229775
:10053000888199814E97479790F5440F551F661F04
:10054000771F41608081918134960397059718F455
:100550002E5F3F4FE2CF9801215031093595279505
:1005600019963C932E931897203131052CF4199647
:100570001C921E9218970FC014964D935D936D9325
:100580007C9317978AE090E08D939C9361E070E0F4
:1005900080E090E00EC060E070E0CB010AC088818E
:1005A00099810C970B97B8F7440F551F661F771F5B
:1005B000C9CFDF91CF911F910F9108958F929F9294
:1005C000AF92BF92CF92DF92EF92FF920F931F9361
:1005D000CF93DF93DB01CD91DC91DC011C96ED9193
:1005E000FC911D97CE17DF070CF04AC0FE01EE0FFD
:1005F000FF1F1A968D919C911B97E80FF91F808021
:100600009180C170DD27B1E0CB27209719F404E673
:1006100010E002C00CE91FEF79015A016B01020FD3
:10062000131FB801C4010E948700892B99F40E0D95
:100630001F1DB801C4010E948700892B71F4B80105
:100640006E0D7F1DC4010E948700892BE1F023E01D
:1006500030E005C021E030E002C022E030E0F501EA
:100660008081918101968217930734F01182108264
:10067000F60180819181019691838083CE0105C02E
:1006800081E090E002C08FEF9FEFDF91CF911F914B
:100690000F91FF90EF90DF90CF90BF90AF909F9021
:1006A0008F9008958F929F92AF92BF92CF92DF92D8
:1006B000EF92FF920F931F93CF93DF9300D000D060
:1006C000CDB7DEB7209143022D3008F47EC08C01F7
:1006D00081E090E09C838B831A82198229E733E0C2
:1006E000AE014F5F5F4FBE016D5F7F4FC8010E943B
:1006F000DE02892B09F069C029E733E0AE014F5FC4
:100700005F4FBE016D5F7F4FC8010E94DE020197FF
:1007100009F05BC029E733E0AE014F5F5F4FBE01D8
:100720006D5F7F4FC8010E94DE02892B09F04DC02A
:10073000A12CB12CC12CD12C76018091430290E0E8
:100740002B813C812817390784F529E733E0AE0176
:100750004F5F5F4FBE016D5F7F4FC8010E94DE0299
:100760004C0129E733E0AE014F5F5F4FBE016D5F83
:100770007F4FC8010E94DE0221E08216910449F4F5
:10078000892B19F5CC0CDD1CEE1CFF1C6894C0F8FD
:1007900008C08928D1F40197C1F4CC0CDD1CEE1CF3
:1007A000FF1C8FEFA81AB80AC8CFF801B186A0863F
:1007B000C482D582E682F78283E090E091838083D1
:1007C00061E070E080E090E003C060E070E0CB01A9
:1007D0000F900F900F900F90DF91CF911F910F917D
:1007E000FF90EF90DF90CF90BF90AF909F908F9051
:1007F00008954F925F926F927F92AF92BF92CF9285
:10080000DF92EF92FF920F931F93CF93DF9300D06D
:1008100000D0CDB7DEB7DC011C962D913C911D9721
:100820001216130624F060E070E0CB01B5C021E0A1
:1008300030E03C832B83DC011A96ED91FC911B97F1
:1008400022813381295231092E31310560F722E0AE
:1008500030E03C832B83248135812B5031092A30B1
:10086000310508F78C0183E090E09C838B831A822A
:1008700019822CEB31E0AE014F5F5F4FBE016D5F1F
:100880007F4FCD010E94DE02892B69F62CEB31E00F
:10089000AE014F5F5F4FBE016D5F7F4FC8010E9489
:1008A000DE02019709F0BFCFE12CF12C412C512C35
:1008B00032012B813C81F801848595852817390701
:1008C0000CF05CC02CEB31E0AE014F5F5F4FBE011E
:1008D0006D5F7F4FC8010E94DE025C01B3E0EB1642
:1008E000F10489F02CEB31E0AE014F5F5F4FBE01A8
:1008F0006D5F7F4FC8010E94DE026C01E3E0EE16DF
:10090000F104F9F40FC02CEB31E0AE014F5F5F4F03
:10091000BE016D5F7F4FC8010E94DE02A816B906B6
:1009200009F381CF2CEB31E0AE014F5F5F4FBE0189
:100930006D5F7F4FC8010E94DE02C816D90609F01C
:1009400072CFA114B10459F4CA94CD2809F06BCF29
:10095000440C551C661C771C689440F80BC0AA9484
:10096000AB2809F060CFCD2809F05DCF440C551CB1
:10097000661C771CAFEFEA1AFA0A9BCFF186E08675
:10098000448255826682778284E090E091838083FE
:1009900061E070E080E090E00F900F900F900F907A
:1009A000DF91CF911F910F91FF90EF90DF90CF904B
:1009B000BF90AF907F906F905F904F9008950F938E
:1009C0001F93CF93DF93FC01C285D3858A819B81DE
:1009D000C6978697C8F48C819D814B974597A0F464
:1009E000DE011696CA53DF4F20E030E040E050E0D1
:1009F00060E070E080E090E00D911C91119709504B
:100A000011090830110520F060E070E0CB0134C01E
:100A100012960D911C911397015111090D3011057A
:100A2000F0F401E00E94440921601496AC17BD0760
:100A300019F7248335834683578300E20E945F09B8
:100A40002283338387E090E09183808380E390E08A
:100A50009187808761E070E080E090E00DC01296A1
:100A60000D911C911397045011090530110560F682
:100A700001E00E944409D9CFDF91CF911F910F91DE
:100A80000895CF93DF93EC01EA85FB858281938102
:100A9000895791098335910550F580914302893337
:100AA00030F184819581CA97899708F5DF01169600
:100AB00083E090E040E050E0BA012D913C91119725
:100AC0002A5031092930310590F412962D913C912C
:100AD0001397265131092131310568F012962D9175
:100AE0003C911397265031092730310530F160E0F1
:100AF00070E0CB0127C0440F551F661F771F416070
:100B0000029614968B339105C1F6EA58FF4F808107
:100B100091810A97099758F78CE190E09987888727
:100B20004C835D836E837F838CE090E09983888320
:100B300061E070E080E090E005C0440F551F661F43
:100B4000771FDECFDF91CF910895CF93DF93DC0144
:100B5000809143021A96ED91FC911B97823229F401
:100B6000828193810A97099710F182819381895735
:100B7000910983359105B8F480914302813298F050
:100B800084819581CA97899770F4EF01269683E056
:100B900090E040E050E0BA01288139812A503109C3
:100BA0002930310528F160E070E0CB015BC0209175
:100BB0004302CF01820F911D820F911DEC012297FC
:100BC000888199810A97099780F619961C921E923E
:100BD00018974FEF5FEFBA0114964D935D936D93A5
:100BE0007C93179788E090E011969C938E93BDCFED
:100BF0002A813B81265131092131310530F5440FDD
:100C0000551F661F771F4160029624968332910517
:100C100019F6EA5BFF4F808191810A97099718F6D0
:100C200080E190E019969C938E93189714964D93BB
:100C30005D936D937C93179788E090E08D939C93E0
:100C400061E070E080E090E00DC02A813B81265099
:100C500031092730310508F0A6CF440F551F661F14
:100C6000771FD2CFDF91CF910895CF93DF93DC012F
:100C70001A96ED91FC911B97828193818C54910976
:100C8000C59720F060E070E0CB0166C08091430220
:100C9000843029F48481958180974797B8F08091BA
:100CA0004302843478F38481958189549109C397F0
:100CB00048F7EF012696EA57FF4F40E050E0BA01AF
:100CC0008881998109970997C8F0DCCF868197813F
:100CD0000997099720F719961C921E9218974FEFC3
:100CE0005FEFBA0114964D935D936D937C931797C4
:100CF0008BE090E011969C938E93D1CF8A819B815B
:100D000046974197F0F4440F551F661F771F4160C7
:100D10002496CE17DF07A1F680E290E019969C9307
:100D20008E93189714964D935D936D937C931797BC
:100D30008BE090E08D939C9361E070E080E090E028
:100D40000BC08A819B810697079708F09BCF440FC1
:100D5000551F661F771FDCCFDF91CF9108958F92CB
:100D60009F92AF92BF92CF92DF92EF92FF92CF937A
:100D7000DF93EC0180E090E00E94A40A4B015C014B
:100D8000BE0180E090E00E94A40A6B017C012DEC82
:100D90003CEC4CE45FE30E94560B9B01AC01C501A7
:100DA000B4010E94F70987FD17C02DEC3CEC4CE420
:100DB0005FE3C501B4010E94560B9B01AC01C70162
:100DC000B6010E94F709082E000C990B8827990F8D
:100DD000881F9927019602C080E090E0DF91CF91B3
:100DE000FF90EF90DF90CF90BF90AF909F908F904B
:100DF00008958F929F92AF92BF92CF92DF92EF921F
:100E0000FF920F931F93CF93DF9300D000D0CDB705
:100E1000DEB7DC011C96ED90FC901D97B6E0EB165A
:100E2000F1040CF44BC06C01EE0CFF1C06E010E06A
:100E300025EC3DE94CE151E8D6011A96ED91FC9183
:100E40001B97DF01A00FB11F6D917C91C801049722
:100E5000E80FF91F8081918129833A834B835C835A
:100E60000E94AF06FC0129813A814B815C8163E9D4
:100E700071E080E091E00E9423094F01FF0FAA0872
:100E8000BB08A501940126273727482759270E5F5D
:100E90001F4F0E151F0581F6F60124833583468307
:100EA000578380E290E0918780878FEF9FEF918357
:100EB000808361E070E080E090E003C060E070E07B
:100EC000CB010F900F900F900F90DF91CF911F915A
:100ED0000F91FF90EF90DF90CF90BF90AF909F90D9
:100EE0008F90089582E080937701109243020895D5
:100EF000F89482E08093B0008093B10094E69093E0
:100F0000B3001092B200809370007894E6E7F1E0AD
:100F100081831092430288E0808320980895CF93C4
:100F2000DF93EC018BE791E09B878A8780914302F6
:100F300090E09D878C8780917701853009F054C0BF
:100F4000CE010E940801672B682B692B19F081E004
:100F500090E04CC0CE010E947801672B682B692B72
:100F6000B1F7CE010E94F201672B682B692B79F74C
:100F7000CE010E947302672B682B692B41F7CE01CB
:100F80000E945203672B682B692B09F7CE010E9440
:100F9000F903672B682B692BD1F6CE010E94DF0481
:100FA000672B682B692B99F6CE010E944105672BB0
:100FB000682B692B61F6CE010E94A505672B682B73
:100FC000692B29F6CE010E943506672B682B692B09
:100FD00009F0BDCFCE010E94F906672B682B692B63
:100FE00009F0B5CF0E94720780E090E0DF91CF91C9
:100FF0000895CF93DF9390E0FC01EB5BFD4F2491CC
:10100000FC01EC5BFD4F8491882361F190E0880F37
:10101000991FFC01EC58FE4FC591D491FC01EA5B8D
:10102000FD4FA591B491611109C09FB7F8948881D3
:10103000209582238883EC912E230BC0623061F4CB
:101040009FB7F8943881822F809583238883EC9111
:101050002E2B2C939FBF06C08FB7F894E8812E2BC0
:1010600028838FBFDF91CF91089590E0FC01E65B6C
:10107000FD4F2491FC01EB5BFD4F3491FC01EC5BD7
:10108000FD4FE491EE23B9F1222339F1233091F0A1
:1010900038F42130A9F0223001F584B58F7D12C0DB
:1010A000273091F02830A1F02430B9F480918000ED
:1010B0008F7D03C0809180008F77809380000DC06A
:1010C00084B58F7784BD09C08091B0008F7703C04D
:1010D0008091B0008F7D8093B000F0E0EE0FFF1F95
:1010E000E85BFD4FA591B491EC913E2381E090E047
:1010F00021F480E0089580E090E008951F920F921F
:101100000FB60F9211248F939F93EF93FF938091CB
:10111000790190917A01019690937A0180937901F7
:1011200080914302843618F085E0809377018091A6
:101130007701843069F0853021F1823031F580917A
:10114000790190917A0184369105D8F0109243028A
:10115000E091430281E08E0F80934302F0E08091A2
:10116000790190917A01EE0FFF1FEA58FE4F9683A6
:10117000858310927A011092790183E08093770140
:1011800004C010927A01109279018091780188232D
:1011900011F085B185B9FF91EF919F918F910F90DB
:1011A0000FBE0F901F901895CF93DF93CDB7DEB78A
:1011B000C154D1090FB6F894DEBF0FBECDBF82E196
:1011C000E2E6F1E0DE01929601900D928A95E1F758
:1011D0000E947807F8940E946100CE0182960E94D6
:1011E0007B007894CE01C4960E948F07892B09F169
:1011F00068AD79AD8AAD9BAD20E1AE014F5F5F4F29
:101200000E94F70C8CA99DA90E94D6008C0184E154
:1012100090E00E94C30BB8010E94F00C0E947B007A
:10122000CE0101960E947B008AE00E9474000E9419
:1012300072072FEF81EE94E0215080409040E1F75B
:1012400000C00000CFCFDB018F939F930E9439092C
:10125000BF91AF91A29F800D911DA39F900DB29F52
:10126000900D11240895EE0FFF1F0590F491E02DCD
:1012700009940E947B09A59F900DB49F900DA49F97
:10128000800D911D112408950F93083090F0982F30
:10129000872F762F652F542F432F322F2227085068
:1012A000F4CF220F331F441F551F661F771F881F5F
:1012B000991F0A95B2F70F91089597FB10F81694AD
:1012C00000080F93083098F00850232F342F452F33
:1012D000562F672F782F892F902DF4CF059497954F
:1012E00087957795679557954795379527950A95EB
:1012F000AAF70F910895A29FB001B39FC001A39FC9
:10130000700D811D1124911DB29F700D811D11243E
:10131000911D08955058BB27AA270E94A2090C943A
:101320001C0B0E940E0B38F00E94150B20F039F4B4
:101330009F3F19F426F40C940B0B0EF4E095E7FB99
:101340000C94050BE92F0E942D0B58F3BA17620776
:1013500073078407950720F079F4A6F50C944F0BDA
:101360000EF4E0950B2EBA2FA02D0B01B9019001C0
:101370000C01CA01A0011124FF27591B99F0593F04
:1013800050F4503E68F11A16F040A22F232F342F4C
:101390004427585FF3CF469537952795A795F0409A
:1013A0005395C9F77EF41F16BA0B620B730B840BAF
:1013B000BAF09150A1F0FF0FBB1F661F771F881F67
:1013C000C2F70EC0BA0F621F731F841F48F48795BF
:1013D00077956795B795F7959E3F08F0B0CF9395B1
:1013E000880F08F09927EE0F9795879508950E942A
:1013F000E10A08F481E008950E94100A0C941C0B85
:101400000E94150B58F00E940E0B40F029F45F3F2C
:1014100029F00C94050B51110C94500B0C940B0BF0
:101420000E942D0B68F39923B1F3552391F3951B7B
:10143000550BBB27AA2762177307840738F09F5FF5
:101440005F4F220F331F441FAA1FA9F335D00E2E62
:101450003AF0E0E832D091505040E695001CCAF7CF
:101460002BD0FE2F29D0660F771F881FBB1F261792
:1014700037074807AB07B0E809F0BB0B802DBF0169
:10148000FF2793585F4F3AF09E3F510578F00C9438
:10149000050B0C94500B5F3FE4F3983ED4F3869514
:1014A00077956795B795F7959F5FC9F7880F911D59
:1014B0009695879597F90895E1E0660F771F881F45
:1014C000BB1F621773078407BA0720F0621B730BF8
:1014D000840BBA0BEE1F88F7E09508950E94750AF9
:1014E0006894B1110C94500B08950E94350B88F04C
:1014F0009F5798F0B92F9927B751B0F0E1F0660FD8
:10150000771F881F991F1AF0BA95C9F714C0B13018
:1015100091F00E944F0BB1E008950C944F0B672F90
:10152000782F8827B85F39F0B93FCCF38695779547
:101530006795B395D9F73EF4909580957095619530
:101540007F4F8F4F9F4F0895E89409C097FB3EF45B
:1015500090958095709561957F4F8F4F9F4F992300
:10156000A9F0F92F96E9BB279395F695879577957E
:101570006795B795F111F8CFFAF4BB0F11F460FF3E
:101580001BC06F5F7F4F8F4F9F4F16C0882311F096
:1015900096E911C0772321F09EE8872F762F05C0AA
:1015A000662371F096E8862F70E060E02AF09A9545
:1015B000660F771F881FDAF7880F9695879597F93A
:1015C0000895990F0008550FAA0BE0E8FEEF1616D4
:1015D0001706E807F907C0F012161306E407F50727
:1015E00098F0621B730B840B950B39F40A2661F09B
:1015F000232B242B252B21F408950A2609F4A1403E
:10160000A6958FEF811D811D089597F99F6780E84A
:1016100070E060E008959FEF80EC089500240A9444
:101620001616170618060906089500240A941216BD
:101630001306140605060895092E0394000C11F4F0
:10164000882352F0BB0F40F4BF2B11F460FF04C09D
:101650006F5F7F4F8F4F9F4F089557FD9058440FF6
:10166000551F59F05F3F71F04795880F97FB991F01
:1016700061F09F3F79F087950895121613061406BE
:10168000551FF2CF4695F1DF08C01616170618064B
:10169000991FF1CF86957105610508940895E89426
:1016A000BB2766277727CB0197F908950E94690B1E
:1016B0000C941C0B0E940E0B38F00E94150B20F0AE
:1016C000952311F00C94050B0C940B0B11240C9426
:1016D000500B0E942D0B70F3959FC1F3950F50E0B6
:1016E000551F629FF001729FBB27F00DB11D639FD4
:1016F000AA27F00DB11DAA1F649F6627B00DA11D7A
:10170000661F829F2227B00DA11D621F739FB00D1F
:10171000A11D621F839FA00D611D221F749F33278F
:10172000A00D611D231F849F600D211D822F762F28
:101730006A2F11249F5750409AF0F1F088234AF005
:10174000EE0FFF1FBB1F661F771F881F9150504071
:10175000A9F79E3F510580F00C94050B0C94500B9B
:101760005F3FE4F3983ED4F3869577956795B795F8
:10177000F795E7959F5FC1F7FE2B880F911D969512
:10178000879597F90895CF93DF938230910510F4F0
:1017900082E090E0E0914D02F0914E0220E030E0D6
:1017A000C0E0D0E0309711F14081518148175907CE
:1017B000C0F04817590761F482819381209719F08E
:1017C0009B838A832BC090934E0280934D0226C048
:1017D0002115310519F04217530718F49A01BE017B
:1017E000DF01EF010280F381E02DDCCF211531050F
:1017F00009F1281B390B2430310590F412968D9194
:101800009C9113976115710521F0FB0193838283ED
:1018100004C090934E0280934D02FD01329644C065
:10182000FD01E20FF31F81939193225031092D9313
:101830003C933AC020914B0230914C02232B41F44F
:10184000209102013091030130934C0220934B020E
:1018500020910001309101012115310541F42DB78E
:101860003EB74091040150910501241B350BE091D6
:101870004B02F0914C02E217F307A0F42E1B3F0B32
:101880002817390778F0AC014E5F5F4F24173507F2
:1018900048F04E0F5F1F50934C0240934B028193D0
:1018A000919302C0E0E0F0E0CF01DF91CF91089585
:1018B0000F931F93CF93DF93009709F48CC0FC0123
:1018C00032971382128200914D0210914E0201153F
:1018D000110581F420813181820F931F20914B02E9
:1018E00030914C022817390779F5F0934C02E093B8
:1018F0004B0271C0D80140E050E0AE17BF0750F472
:1019000012962D913C911397AD012115310509F1E6
:10191000D901F3CF9D01DA01338322836081718184
:10192000860F971F8217930769F4EC01288139818C
:10193000260F371F2E5F3F4F318320838A819B8183
:1019400093838283452B29F4F0934E02E0934D025A
:1019500042C01396FC93EE931297ED014991599171
:101960009E01240F351FE217F30771F480819181E6
:10197000840F951F029611969C938E93828193817A
:1019800013969C938E931297E0E0F0E0D8011296A4
:101990008D919C911397009719F0F8018C01F6CF67
:1019A0008D919C9198012E5F3F4F820F931F209144
:1019B0004B0230914C022817390769F4309729F40B
:1019C00010924E0210924D0202C0138212821093A6
:1019D0004C0200934B02DF91CF911F910F9108951C
:1019E000FB01DC0101900D920020E1F70895BB2777
:1019F000FA01A62F6217710581059105330B30FBA3
:101A000066F0AA27660F771F881F991FAA1FA217C3
:101A100010F0A21B63953850A9F7A05DAA3308F017
:101A2000A95DA19336F7B111B1931082CA010C944C
:101A3000190DDC01FC01672F71917723E1F73297D3
:101A400004C07C916D9370836291AE17BF07C8F399
:061A50000895F894FFCF99
:101A560000004F0220004E45430A00534F4E590ADC
:101A6600005243350A005243360A00444953480A95
:101A76000053484152500A0050414E41534F4E497F
:101A8600430A004A56430A0053414E594F0A004D35
:101A9600495453485542495348490A0053414D5306
:101AA600554E470A004C470A00554E4B4E4F574E6F
:101AB6000A00726561647920746F207265636569D6
:041AC60076650A0037
:00000001FF
