:100000000C9434000C9446000C9446000C9446006A
:100010000C9446000C9446000C9446000C94460048
:100020000C9446000C9446000C9446000C94460038
:100030000C9446000C9446000C9446000C94460028
:100040000C9446000C9446000C9446000C94460018
:100050000C9446000C9446000C9446000C94460008
:100060000C9446000C94460011241FBECFEFD8E03C
:10007000DEBFCDBF21E0A0E0B1E001C01D92A13004
:10008000B207E1F70E9448000C9469000C9400004C
:100090001092C50087E08093C4008091C100886100
:1000A0008093C1008091C20086608093C2008091DD
:1000B000C00087FD05C08091C60080930001F7CF86
:1000C0008091C00085FDF3CF809100018093C60030
:0600D000F7CFF894FFCF0A
:00000001FF
