:100000000C9434000C9446000C9446000C9446006A
:100010000C9446000C9446000C9446000C94460048
:100020000C9446000C9446000C9446000C94460038
:100030000C9446000C9446000C9446000C94460028
:100040000C9446000C9446000C9448000C94460016
:100050000C9446000C9446000C9446000C94460008
:100060000C9446000C94460011241FBECFEFD8E03C
:10007000DEBFCDBF21E0A0E0B1E001C01D92A13004
:10008000B207E1F70E945F000C9478000C94000026
:100090001F920F920FB60F9211248F93EF93FF933D
:1000A000E6ECF0E080818093000182E58083FF919F
:1000B000EF918F910F900FBE0F901F901895109297
:1000C000C50087E68093C4008091C1008861809359
:1000D000C1008091C10080688093C1008091C200FE
:1000E00086608093C200789489E58093C600FFCF34
:0400F000F894FFCFB2
:00000001FF
