:100000000C9434000C9449000C9449000C94490061
:100010000C9449000C9449000C9449000C9449003C
:100020000C9449000C9449000C9449000C9449002C
:100030000C9449000C9449000C9449000C9449001C
:100040000C9449000C9449000C9449000C9449000C
:100050000C9449000C9449000C9449000C944900FC
:100060000C9449000C94490011241FBECFEFD8E036
:10007000DEBFCDBF11E0A0E0B1E0E6E0F1E002C0FC
:1000800005900D92A031B107D9F70E9471000C9430
:1000900081000C9400001092C50087E68093C40094
:1000A00088E18093C10086E08093C200089580912A
:1000B000C00087FFFCCF8091C60008959091C000DA
:1000C00095FFFCCF8093C6000895CF93DF93EC019A
:1000D0008991882319F00E945E00FACFDF91CF91B9
:1000E00008950E944B0080E091E00E9465002FEF90
:1000F00083E294EF215080409040E1F700C000007F
:06010000F2CFF894FFCFDE
:1001060048656C6C6F20776F726C6421210A000061
:00000001FF
