:100000000C9434000C9451000C9451000C94510049
:100010000C9451000C9451000C9451000C9451001C
:100020000C9451000C9451000C9451000C9451000C
:100030000C9451000C9451000C9451000C945100FC
:100040000C9451000C9451000C9468000C945100D5
:100050000C9451000C9451000C9451000C945100DC
:100060000C9451000C94510011241FBECFEFD8E026
:10007000DEBFCDBF11E0A0E0B1E0E8E7F1E002C0F3
:1000800005900D92A436B107D9F721E0A4E6B1E0BE
:1000900001C01D92A536B207E1F70E9485000C94BD
:1000A000BA000C9400009091C00095FFFCCF909195
:1000B000C6008093C6000895CF93DF93EC01899129
:1000C000882319F00E945300FACFDF91CF91089551
:1000D0001F920F920FB60F9211248F93EF93FF93FD
:1000E000E6ECF0E08081809364018091640180837C
:1000F0008081809364018AE08083FF91EF918F91EA
:100100000F900FBE0F901F901895CF93DF93CDB730
:10011000DEB7C456D1090FB6F894DEBF0FBECDBF0F
:100120001092C50087E68093C4008091C100886169
:100130008093C1008091C10080688093C10080914C
:10014000C20086608093C20078948CE1E0E0F1E028
:10015000DE01119601900D928A95E1F7FE017D96E0
:1001600088E4DF011D928A95E9F7CE0101960E948D
:080170005C00FFCFF894FFCF03
:10017800626F61726420726561647920746F2063B4
:100188006F6D756E6963617465200A000000000078
:100198000000000000000000000000000000000057
:1001A8000000000000000000000000000000000047
:1001B8000000000000000000000000000000000037
:1001C8000000000000000000000000000000000027
:0401D8000000000023
:00000001FF
