:100000000C9434000C9446000C9446000C9446006A
:100010000C9446000C9446000C9446000C94460048
:100020000C9446000C9446000C9446000C94460038
:100030000C9446000C9446000C9446000C94460028
:100040000C9446000C9446000C9446000C94460018
:100050000C9446000C9446000C9446000C94460008
:100060000C9446000C94460011241FBECFEFD8E03C
:10007000DEBFCDBF21E0A0E0B1E001C01D92AE3CEB
:10008000B207E1F70E9465070C94140A0C94000073
:10009000CF92DF92EF92FF92CF93DF93EC01072E86
:1000A000000C880B990B0E94F7086B017C0120E083
:1000B00030E040E45FE30E94A70920E030E048E43C
:1000C00052E40E944D080E94BF08C617D707F4F0FB
:1000D00020E030E040EA5FE3C701B6010E94A709D3
:1000E00020E030E048E452E40E944D0820E030E097
:1000F00040E85FE30E94DC070E94BF0821E030E097
:100100006C177D070CF420E0C90102C080E090E08C
:10011000DF91CF91FF90EF90DF90CF9008956C59D1
:100120007F4F0C944800645671090C944800CF939B
:10013000DF93DC011A96ED91FC911B9782819381EC
:10014000885891098D35910568F48091CD018430EE
:1001500029F48481958180974797D8F08091CD01CB
:10016000843420F460E070E0CB014EC0848195813E
:10017000825491098E97B0F7EF012696EA57FF4F08
:1001800040E050E0BA018881998109970997E0F031
:10019000E9CF868197810997099700F719961C92F4
:1001A0001E9218974FEF5FEFBA0114964D935D932F
:1001B0006D937C93179781E090E08D939C9361E021
:1001C00070E080E090E020C08A819B814697419753
:1001D00080F4440F551F661F771F41602496CE1789
:1001E000DF0789F680E290E019969C938E9318972A
:1001F000DCCF8A819B810697079708F0B3CF440F25
:10020000551F661F771FEACFDF91CF910895CF93D7
:10021000DF93DC018091CD018A3108F452C01A9637
:10022000ED91FC911B9780819181843F914080F4F6
:1002300019961C921E9218974FEF5FEFBA01149611
:100240004D935D936D937C93179789E090E032C056
:100250008281938185974B97A0F5369622E030E016
:1002600040E050E0BA018091CD0190E0E901219693
:10027000C817D9073CF4EF01229788819981079725
:10028000079718F1215031093595279519963C9318
:100290002E9318972C3031052CF419961C921E922F
:1002A00018970FC014964D935D936D937C93179799
:1002B00082E090E08D939C9361E070E080E090E0BC
:1002C0001CC060E070E0CB0118C080819181439731
:1002D0000F9748F4440F551F661F771F41602E5F2C
:1002E0003F4F3496C0CF808191810A97099748F794
:1002F000440F551F661F771FF2CFDF91CF910895EE
:10030000CF93DF93DC018091CD018A3108F452C094
:100310001A96ED91FC911B978081918180329340D8
:1003200040F419961C921E9218974FEF5FEFBA0196
:1003300007C082819381C697869708F43FC03AC070
:1003400014964D935D936D937C93179789E090E09D
:100350008D939C9361E070E080E090E045C08081E7
:10036000918185974B97B0F5440F551F661F771FF6
:1003700041602E5F3F4F34968091CD0190E0E901BE
:100380002196C817D9073CF4EF01229788819981FB
:100390000C970B9720F32150310935952795199625
:1003A0003C932E9318972C30310554F619961C92D5
:1003B0001E92189760E070E0CB0116C08481958191
:1003C000C6978697B8F7389623E030E040E050E0D3
:1003D000BA01D2CF808191810C970A9758F7440FC8
:1003E000551F661F771FC5CFDF91CF9108950F93DB
:1003F0001F93CF93DF93DC018091CD01823208F40B
:100400004EC01A96ED91FC911B97828193810697BD
:10041000079708F044C0369622E030E040E050E014
:10042000BA0189010F5F1F4F8091CD0190E008173D
:100430001907B4F4EF012297888199814E97479765
:1004400090F5440F551F661F771F41608081918191
:1004500034960397059718F42E5F3F4FE2CF98012B
:10046000215031093595279519963C932E9318976D
:10047000203131052CF419961C921E9218970FC04A
:1004800014964D935D936D937C9317978AE090E05B
:100490008D939C9361E070E080E090E00EC060E09E
:1004A00070E0CB010AC0888199810C970B97B8F74F
:1004B000440F551F661F771FC9CFDF91CF911F9142
:1004C0000F9108958F929F92AF92BF92CF92DF9239
:1004D000EF92FF920F931F93CF93DF93DB01CD91A8
:1004E000DC91DC011C96ED91FC911D97CE17DF0786
:1004F0000CF04AC0FE01EE0FFF1F1A968D919C91E1
:100500001B97E80FF91F80809180C170DD27B1E053
:10051000CB27209719F404E610E002C00CE91FEF86
:1005200079015A016B01020F131FB801C4010E9427
:100530004800892B99F40E0D1F1DB801C4010E94BB
:100540004800892B71F4B8016E0D7F1DC4010E9413
:100550004800892BE1F023E030E005C021E030E0E5
:1005600002C022E030E0F50180819181019682177E
:10057000930734F011821082F601808191810196F7
:1005800091838083CE0105C081E090E002C08FEFAF
:100590009FEFDF91CF911F910F91FF90EF90DF9030
:1005A000CF90BF90AF909F908F9008958F929F9221
:1005B000AF92BF92CF92DF92EF92FF920F931F9371
:1005C000CF93DF9300D000D0CDB7DEB72091CD011F
:1005D0002D3008F47EC08C0181E090E09C838B83F9
:1005E0001A82198229E733E0AE014F5F5F4FBE01E7
:1005F0006D5F7F4FC8010E946202892B09F069C0BC
:1006000029E733E0AE014F5F5F4FBE016D5F7F4F63
:10061000C8010E946202019709F05BC029E733E03C
:10062000AE014F5F5F4FBE016D5F7F4FC8010E94FB
:100630006202892B09F04DC0A12CB12CC12CD12C08
:1006400076018091CD0190E02B813C8128173907FC
:1006500084F529E733E0AE014F5F5F4FBE016D5F68
:100660007F4FC8010E9462024C0129E733E0AE01CE
:100670004F5F5F4FBE016D5F7F4FC8010E946202F6
:1006800021E08216910449F4892B19F5CC0CDD1C6C
:10069000EE1CFF1C6894C0F808C08928D1F40197AB
:1006A000C1F4CC0CDD1CEE1CFF1C8FEFA81AB80A9D
:1006B000C8CFF801B186A086C482D582E682F782CF
:1006C00083E090E09183808361E070E080E090E0DF
:1006D00003C060E070E0CB010F900F900F900F907F
:1006E000DF91CF911F910F91FF90EF90DF90CF900E
:1006F000BF90AF909F908F9008954F925F926F92AE
:100700007F92AF92BF92CF92DF92EF92FF920F93C0
:100710001F93CF93DF9300D000D0CDB7DEB7DC01BD
:100720001C962D913C911D971216130624F060E043
:1007300070E0CB01B5C021E030E03C832B83DC01CD
:100740001A96ED91FC911B97228133812952310930
:100750002E31310560F722E030E03C832B83248189
:1007600035812B5031092A30310508F78C0183E09F
:1007700090E09C838B831A8219822CEB31E0AE01CE
:100780004F5F5F4FBE016D5F7F4FCD010E946202E0
:10079000892B69F62CEB31E0AE014F5F5F4FBE0154
:1007A0006D5F7F4FC8010E946202019709F0BFCFC1
:1007B000E12CF12C412C512C32012B813C81F80190
:1007C00084859585281739070CF05CC02CEB31E047
:1007D000AE014F5F5F4FBE016D5F7F4FC8010E944A
:1007E00062025C01B3E0EB16F10489F02CEB31E01E
:1007F000AE014F5F5F4FBE016D5F7F4FC8010E942A
:1008000062026C01E3E0EE16F104F9F40FC02CEB88
:1008100031E0AE014F5F5F4FBE016D5F7F4FC8019A
:100820000E946202A816B90609F381CF2CEB31E0D1
:10083000AE014F5F5F4FBE016D5F7F4FC8010E94E9
:100840006202C816D90609F072CFA114B10459F496
:10085000CA94CD2809F06BCF440C551C661C771C3C
:10086000689440F80BC0AA94AB2809F060CFCD285B
:1008700009F05DCF440C551C661C771CAFEFEA1ADB
:10088000FA0A9BCFF186E08644825582668277829F
:1008900084E090E09183808361E070E080E090E00C
:1008A0000F900F900F900F90DF91CF911F910F91AC
:1008B000FF90EF90DF90CF90BF90AF907F906F90C0
:1008C0005F904F9008950F931F93CF93DF93FC0198
:1008D000C285D3858A819B81C6978697C8F48C810F
:1008E0009D814B974597A0F4DE011696CA53DF4FC2
:1008F00020E030E040E050E060E070E080E090E038
:100900000D911C911197095011090830110520F023
:1009100060E070E0CB0134C012960D911C911397EA
:10092000015111090D301105F0F401E00E94950705
:1009300021601496AC17BD0719F7248335834683CD
:10094000578300E20E94B0072283338387E090E060
:100950009183808380E390E09187808761E070E0FD
:1009600080E090E00DC012960D911C9113970450F9
:1009700011090530110560F601E00E949507D9CFF5
:10098000DF91CF911F910F910895CF93DF93EC01E9
:10099000EA85FB8582819381895791098335910589
:1009A00050F58091CD01893330F184819581CA97CA
:1009B000899708F5DF01169683E090E040E050E06B
:1009C000BA012D913C9111972A50310929303105F6
:1009D00090F412962D913C911397265131092131B3
:1009E000310568F012962D913C91139726503109EC
:1009F0002730310530F160E070E0CB0127C0440FB3
:100A0000551F661F771F4160029614968B33910520
:100A1000C1F6EA58FF4F808191810A97099758F7EC
:100A20008CE190E0998788874C835D836E837F8318
:100A30008CE090E09983888361E070E080E090E052
:100A400005C0440F551F661F771FDECFDF91CF9182
:100A50000895CF93DF93DC018091CD011A96ED913B
:100A6000FC911B97823229F4828193810A9709971E
:100A700010F1828193818957910983359105B8F4EA
:100A80008091CD01813298F084819581CA978997B0
:100A900070F4EF01269683E090E040E050E0BA0168
:100AA000288139812A50310929303105D0F060E0A0
:100AB00070E0CB0150C02091CD01CF01820F911D7C
:100AC000820F911DEC012297888199810A970997DD
:100AD00080F619961C921E9218974FEF5FEFBA019D
:100AE0002CC02A813B812651310921313105C0F4C6
:100AF000440F551F661F771F41600296249683326C
:100B0000910571F6EA5BFF4F808191810A97099701
:100B100070F680E190E019969C938E9318970DC023
:100B20002A813B81265031092730310508F0BFCF9B
:100B3000440F551F661F771FE0CF14964D935D93AA
:100B40006D937C93179788E090E08D939C9361E080
:100B500070E080E090E0DF91CF910895CF93DF9334
:100B6000DC011A96ED91FC911B97828193818C5444
:100B70009109C59768F48091CD01843029F484816E
:100B8000958180974797D8F08091CD01843420F4E7
:100B900060E070E0CB014EC0848195818954910959
:100BA000C397B0F7EF012696EA57FF4F40E050E0B9
:100BB000BA018881998109970997E0F0E9CF868188
:100BC00097810997099700F719961C921E9218971A
:100BD0004FEF5FEFBA0114964D935D936D937C9345
:100BE00017978BE090E08D939C9361E070E080E03C
:100BF00090E020C08A819B814697419780F4440F02
:100C0000551F661F771F41602496CE17DF0789F6B0
:100C100080E290E019969C938E931897DCCF8A819E
:100C20009B810697079708F0B3CF440F551F661FA7
:100C3000771FEACFDF91CF9108958F929F92AF9265
:100C4000BF92CF92DF92EF92FF92CF93DF93EC01AE
:100C500080E090E00E94F5084B015C01BE0180E05D
:100C600090E00E94F5086B017C012DEC3CEC4CE41B
:100C70005FE30E94A7099B01AC01C501B4010E947A
:100C8000480887FD17C02DEC3CEC4CE45FE3C50140
:100C9000B4010E94A7099B01AC01C701B6010E94E3
:100CA0004808082E000C990B8827990F881F992750
:100CB000019602C080E090E0DF91CF91FF90EF902D
:100CC000DF90CF90BF90AF909F908F9008958F92BC
:100CD0009F92AF92BF92CF92DF92EF92FF920F93CB
:100CE0001F93CF93DF9300D000D0CDB7DEB7DC01E8
:100CF0001C96ED90FC901D97B6E0EB16F1040CF4F9
:100D00004BC06C01EE0CFF1C06E010E025EC3DE949
:100D10004CE151E8D6011A96ED91FC911B97DF0149
:100D2000A00FB11F6D917C91C8010497E80FF91FC6
:100D30008081918129833A834B835C830E941D06C5
:100D4000FC0129813A814B815C8163E971E080E09B
:100D500091E00E947A074F01FF0FAA08BB08A50186
:100D6000940126273727482759270E5F1F4F0E1556
:100D70001F0581F6F601248335834683578380E27D
:100D800090E0918780878FEF9FEF9183808361E070
:100D900070E080E090E003C060E070E0CB010F9075
:100DA0000F900F900F90DF91CF911F910F91FF90B7
:100DB000EF90DF90CF90BF90AF909F908F9008956D
:100DC00082E0809301011092CD010895F89482E0B1
:100DD0008093B0008093B10094E69093B30010929A
:100DE000B200809370007894809301011092CD013D
:100DF00057985F9A0895CF93DF93EC0185E091E0D7
:100E00009B878A878091CD0190E09D878C87809118
:100E10000101853009F054C0CE010E949700672B74
:100E2000682B692B19F081E090E04CC0CE010E9444
:100E30000701672B682B692BB1F7CE010E94800157
:100E4000672B682B692B79F7CE010E94F701672B7E
:100E5000682B692B41F7CE010E94D602672B682BC5
:100E6000692B09F7CE010E947D03672B682B692B44
:100E7000D1F6CE010E946304672B682B692B99F68B
:100E8000CE010E94C504672B682B692B61F6CE0149
:100E90000E942905672B682B692B29F6CE010E9439
:100EA000AE05672B682B692B09F0BDCFCE010E94E0
:100EB0006706672B682B692B09F0B5CF0E94E00607
:100EC00080E090E0DF91CF910895CF93DF93CDB78D
:100ED000DEB72E970FB6F894DEBF0FBECDBF0E94CF
:100EE000E606CE0101960E94FB06892BD1F30E94F3
:100EF000E006F7CFDB018F939F930E948A07BF9193
:100F0000AF91A29F800D911DA39F900DB29F900D58
:100F1000112408950E94CC07A59F900DB49F900DB9
:100F2000A49F800D911D112408950F93083090F017
:100F3000982F872F762F652F542F432F322F22275C
:100F40000850F4CF220F331F441F551F661F771F11
:100F5000881F991F0A95B2F70F91089597FB10F813
:100F6000169400080F93083098F00850232F342F60
:100F7000452F562F672F782F892F902DF4CF05946A
:100F800097958795779567955795479537952795C1
:100F90000A95AAF70F910895A29FB001B39FC001CF
:100FA000A39F700D811D1124911DB29F700D811D95
:100FB0001124911D08955058BB27AA270E94F307BA
:100FC0000C946D090E945F0938F00E94660920F0B8
:100FD00039F49F3F19F426F40C945C090EF4E09563
:100FE000E7FB0C945609E92F0E947E0958F3BA17C3
:100FF000620773078407950720F079F4A6F50C942F
:10100000A0090EF4E0950B2EBA2FA02D0B01B9010B
:1010100090010C01CA01A0011124FF27591B99F06E
:10102000593F50F4503E68F11A16F040A22F232F7A
:10103000342F4427585FF3CF469537952795A795CA
:10104000F0405395C9F77EF41F16BA0B620B730B71
:10105000840BBAF09150A1F0FF0FBB1F661F771FE2
:10106000881FC2F70EC0BA0F621F731F841F48F497
:10107000879577956795B795F7959E3F08F0B0CF20
:101080009395880F08F09927EE0F97958795089507
:101090000E94320908F481E008950E9461080C94CE
:1010A0006D090E94660958F00E945F0940F029F41A
:1010B0005F3F29F00C94560951110C94A1090C942E
:1010C0005C090E947E0968F39923B1F3552391F3DB
:1010D000951B550BBB27AA2762177307840738F0A7
:1010E0009F5F5F4F220F331F441FAA1FA9F335D004
:1010F0000E2E3AF0E0E832D091505040E695001CB8
:10110000CAF72BD0FE2F29D0660F771F881FBB1F71
:10111000261737074807AB07B0E809F0BB0B802D4F
:10112000BF01FF2793585F4F3AF09E3F510578F07B
:101130000C9456090C94A1095F3FE4F3983ED4F354
:10114000869577956795B795F7959F5FC9F7880F4F
:10115000911D9695879597F90895E1E0660F771FA1
:10116000881FBB1F621773078407BA0720F0621B32
:10117000730B840BBA0BEE1F88F7E09508950E945D
:10118000C6086894B1110C94A10908950E948609BB
:1011900088F09F5798F0B92F9927B751B0F0E1F038
:1011A000660F771F881F991F1AF0BA95C9F714C0E8
:1011B000B13091F00E94A009B1E008950C94A0090B
:1011C000672F782F8827B85F39F0B93FCCF3869521
:1011D00077956795B395D9F73EF49095809570957E
:1011E00061957F4F8F4F9F4F0895E89409C097FBFB
:1011F0003EF490958095709561957F4F8F4F9F4FEE
:101200009923A9F0F92F96E9BB279395F695879531
:1012100077956795B795F111F8CFFAF4BB0F11F4F4
:1012200060FF1BC06F5F7F4F8F4F9F4F16C088239B
:1012300011F096E911C0772321F09EE8872F762FD1
:1012400005C0662371F096E8862F70E060E02AF012
:101250009A95660F771F881FDAF7880F96958795FE
:1012600097F90895990F0008550FAA0BE0E8FEEFD3
:1012700016161706E807F907C0F012161306E4075A
:10128000F50798F0621B730B840B950B39F40A2653
:1012900061F0232B242B252B21F408950A2609F431
:1012A000A140A6958FEF811D811D089597F99F6735
:1012B00080E870E060E008959FEF80EC08950024DE
:1012C0000A941616170618060906089500240A94AB
:1012D00012161306140605060895092E0394000C31
:1012E00011F4882352F0BB0F40F4BF2B11F460FFC0
:1012F00004C06F5F7F4F8F4F9F4F089557FD9058E9
:10130000440F551F59F05F3F71F04795880F97FBC9
:10131000991F61F09F3F79F0879508951216130683
:101320001406551FF2CF4695F1DF08C016161706B2
:101330001806991FF1CF86957105610508940895E7
:10134000E894BB2766277727CB0197F908950E9479
:10135000BA090C946D090E945F0938F00E94660971
:1013600020F0952311F00C9456090C945C0911247B
:101370000C94A1090E947E0970F3959FC1F3950F0B
:1013800050E0551F629FF001729FBB27F00DB11D09
:10139000639FAA27F00DB11DAA1F649F6627B00D99
:1013A000A11D661F829F2227B00DA11D621F739F82
:1013B000B00DA11D621F839FA00D611D221F749F90
:1013C0003327A00D611D231F849F600D211D822FD7
:1013D000762F6A2F11249F5750409AF0F1F08823FE
:1013E0004AF0EE0FFF1FBB1F661F771F881F91502B
:1013F0005040A9F79E3F510580F00C9456090C947B
:10140000A1095F3FE4F3983ED4F3869577956795FD
:10141000B795F795E7959F5FC1F7FE2B880F911D54
:0C1420009695879597F90895F894FFCFF2
:00000001FF
