:100000000C9434000C9451000C9451000C94510049
:100010000C9451000C9451000C9451000C941D0848
:100020000C9451000C9451000C9451000C9451000C
:100030000C9451000C9451000C9451000C945100FC
:100040000C9451000C9451000C9451000C945100EC
:100050000C9451000C9451000C9451000C945100DC
:100060000C9451000C94510011241FBECFEFD8E026
:10007000DEBFCDBF11E0A0E0B1E0E4E8F7E102C0EF
:1000800005900D92A231B107D9F721E0A2E1B1E0CC
:1000900001C01D92A93EB207E1F70E94B1080C947D
:1000A000C00B0C9400001092C50087E68093C4003A
:1000B00088E18093C10086E08093C200089580911A
:1000C000C00087FFFCCF8091C60008959091C000CA
:1000D00095FFFCCF8093C6000895CF93DF93EC018A
:1000E0008991882319F00E946600FACFDF91CF91A1
:1000F0000895CF92DF92EF92FF92CF93DF93EC01BE
:10010000072E000C880B990B0E94710A6B017C0171
:1001100020E030E040E45FE30E94210B20E030E08B
:1001200048E452E40E94C7090E94390AC617D7075B
:10013000F4F020E030E040EA5FE3C701B6010E943E
:10014000210B20E030E048E452E40E94C70920E09F
:1001500030E040E85FE30E9456090E94390A21E03E
:1001600030E06C177D070CF420E0C90102C080E08C
:1001700090E0DF91CF91FF90EF90DF90CF900895C6
:100180006C597F4F0C947900645671090C94790076
:10019000CF93DF93DC011A96ED91FC911B9782813E
:1001A0009381885891098D35910568F48091E1011A
:1001B000843029F48481958180974797D8F0809185
:1001C000E101843420F460E070E0CB014EC0848112
:1001D0009581825491098E97B0F7EF012696EA57E0
:1001E000FF4F40E050E0BA01888199810997099753
:1001F000E0F0E9CF868197810997099700F7199672
:100200001C921E9218974FEF5FEFBA0114964D9310
:100210005D936D937C93179781E090E08D939C9311
:1002200061E070E080E090E020C08A819B81469789
:10023000419780F4440F551F661F771F4160249635
:10024000CE17DF0789F680E290E019969C938E9393
:100250001897DCCF8A819B810697079708F0B3CF68
:10026000440F551F661F771FEACFDF91CF91089586
:10027000CF93DF93DC018091E1018A3108F452C011
:100280001A96ED91FC911B9780819181843F91405A
:1002900080F419961C921E9218974FEF5FEFBA01E7
:1002A00014964D935D936D937C93179789E090E03E
:1002B00032C08281938185974B97A0F5369622E0D4
:1002C00030E040E050E0BA018091E10190E0E901C6
:1002D0002196C817D9073CF4EF01229788819981AC
:1002E0000797079718F121503109359527951996E9
:1002F0003C932E9318972C3031052CF419961C92B0
:100300001E9218970FC014964D935D936D937C9336
:10031000179782E090E08D939C9361E070E080E01D
:1003200090E01CC060E070E0CB0118C0808191813A
:1003300043970F9748F4440F551F661F771F41607E
:100340002E5F3F4F3496C0CF808191810A970997E5
:1003500048F7440F551F661F771FF2CFDF91CF91EB
:100360000895CF93DF93DC018091E1018A3108F495
:1003700052C01A96ED91FC911B9780819181803239
:10038000934040F419961C921E9218974FEF5FEF1E
:10039000BA0107C082819381C697869708F43FC04F
:1003A0003AC014964D935D936D937C93179789E0B3
:1003B00090E08D939C9361E070E080E090E045C018
:1003C0008081918185974B97B0F5440F551F661F2B
:1003D000771F41602E5F3F4F34968091E10190E09E
:1003E000E9012196C817D9073CF4EF0122978881CB
:1003F00099810C970B9720F321503109359527955A
:1004000019963C932E9318972C30310554F6199673
:100410001C921E92189760E070E0CB0116C0848198
:100420009581C6978697B8F7389623E030E040E08C
:1004300050E0BA01D2CF808191810C970A9758F78A
:10044000440F551F661F771FC5CFDF91CF910895C9
:100450000F931F93CF93DF93DC018091E1018232F0
:1004600008F44EC01A96ED91FC911B9782819381FE
:100470000697079708F044C0369622E030E040E047
:1004800050E0BA0189010F5F1F4F8091E10190E0B8
:1004900008171907B4F4EF012297888199814E97C4
:1004A000479790F5440F551F661F771F4160808165
:1004B000918134960397059718F42E5F3F4FE2CF52
:1004C0009801215031093595279519963C932E9323
:1004D0001897203131052CF419961C921E9218970A
:1004E0000FC014964D935D936D937C9317978AE09C
:1004F00090E08D939C9361E070E080E090E00EC00E
:1005000060E070E0CB010AC0888199810C970B975D
:10051000B8F7440F551F661F771FC9CFDF91CF91E2
:100520001F910F9108958F929F92AF92BF92CF9299
:10053000DF92EF92FF920F931F93CF93DF93DB0134
:10054000CD91DC91DC011C96ED91FC911D97CE17AD
:10055000DF070CF04AC0FE01EE0FFF1F1A968D91C7
:100560009C911B97E80FF91F80809180C170DD2757
:10057000B1E0CB27209719F404E610E002C00CE9A3
:100580001FEF79015A016B01020F131FB801C4015B
:100590000E947900892B99F40E0D1F1DB801C4012A
:1005A0000E947900892B71F4B8016E0D7F1DC40182
:1005B0000E947900892BE1F023E030E005C021E0C2
:1005C00030E002C022E030E0F501808191810196A7
:1005D0008217930734F011821082F6018081918195
:1005E000019691838083CE0105C081E090E002C036
:1005F0008FEF9FEFDF91CF911F910F91FF90EF90C1
:10060000DF90CF90BF90AF909F908F9008958F9282
:100610009F92AF92BF92CF92DF92EF92FF920F9391
:100620001F93CF93DF9300D000D0CDB7DEB72091DA
:10063000E1012D3008F47EC08C0181E090E09C83C4
:100640008B831A82198229E733E0AE014F5F5F4F37
:10065000BE016D5F7F4FC8010E949302892B09F094
:1006600069C029E733E0AE014F5F5F4FBE016D5FA8
:100670007F4FC8010E949302019709F05BC029E7F0
:1006800033E0AE014F5F5F4FBE016D5F7F4FC8012A
:100690000E949302892B09F04DC0A12CB12CC12CD2
:1006A000D12C76018091E10190E02B813C812817CB
:1006B000390784F529E733E0AE014F5F5F4FBE0194
:1006C0006D5F7F4FC8010E9493024C0129E733E020
:1006D000AE014F5F5F4FBE016D5F7F4FC8010E944B
:1006E000930221E08216910449F4892B19F5CC0C70
:1006F000DD1CEE1CFF1C6894C0F808C08928D1F4EA
:100700000197C1F4CC0CDD1CEE1CFF1C8FEFA81A66
:10071000B80AC8CFF801B186A086C482D582E68225
:10072000F78283E090E09183808361E070E080E075
:1007300090E003C060E070E0CB010F900F900F904D
:100740000F90DF91CF911F910F91FF90EF90DF906D
:10075000CF90BF90AF909F908F9008954F925F92EF
:100760006F927F92AF92BF92CF92DF92EF92FF9201
:100770000F931F93CF93DF9300D000D0CDB7DEB798
:10078000DC011C962D913C911D971216130624F046
:1007900060E070E0CB01B5C021E030E03C832B830A
:1007A000DC011A96ED91FC911B972281338129522D
:1007B00031092E31310560F722E030E03C832B8394
:1007C000248135812B5031092A30310508F78C01FD
:1007D00083E090E09C838B831A8219822CEB31E0BA
:1007E000AE014F5F5F4FBE016D5F7F4FCD010E9435
:1007F0009302892B69F62CEB31E0AE014F5F5F4F1E
:10080000BE016D5F7F4FC8010E949302019709F0FE
:10081000BFCFE12CF12C412C512C32012B813C819A
:10082000F80184859585281739070CF05CC02CEBFE
:1008300031E0AE014F5F5F4FBE016D5F7F4FC8017A
:100840000E9493025C01B3E0EB16F10489F02CEBFB
:1008500031E0AE014F5F5F4FBE016D5F7F4FC8015A
:100860000E9493026C01E3E0EE16F104F9F40FC06C
:100870002CEB31E0AE014F5F5F4FBE016D5F7F4FEC
:10088000C8010E949302A816B90609F381CF2CEB88
:1008900031E0AE014F5F5F4FBE016D5F7F4FC8011A
:1008A0000E949302C816D90609F072CFA114B104B0
:1008B00059F4CA94CD2809F06BCF440C551C661C22
:1008C000771C689440F80BC0AA94AB2809F060CF5D
:1008D000CD2809F05DCF440C551C661C771CAFEF8A
:1008E000EA1AFA0A9BCFF186E08644825582668234
:1008F000778284E090E09183808361E070E080E023
:1009000090E00F900F900F900F90DF91CF911F917B
:100910000F91FF90EF90DF90CF90BF90AF907F90BE
:100920006F905F904F9008950F931F93CF93DF9335
:10093000FC01C285D3858A819B81C6978697C8F4BE
:100940008C819D814B974597A0F4DE011696CA5382
:10095000DF4F20E030E040E050E060E070E080E019
:1009600090E00D911C911197095011090830110563
:1009700020F060E070E0CB0134C012960D911C9124
:100980001397015111090D301105F0F401E00E9497
:100990000F0921601496AC17BD0719F7248335831E
:1009A0004683578300E20E942A092283338387E02B
:1009B00090E09183808380E390E09187808761E07D
:1009C00070E080E090E00DC012960D911C9113979D
:1009D000045011090530110560F601E00E940F096D
:1009E000D9CFDF91CF911F910F910895CF93DF93CE
:1009F000EC01EA85FB8582819381895791098335D2
:100A0000910550F58091E101893330F18481958120
:100A1000CA97899708F5DF01169683E090E040E0D9
:100A200050E0BA012D913C9111972A50310929309B
:100A3000310590F412962D913C911397265131096E
:100A40002131310568F012962D913C911397265073
:100A500031092730310530F160E070E0CB0127C06B
:100A6000440F551F661F771F4160029614968B3303
:100A70009105C1F6EA58FF4F808191810A97099745
:100A800058F78CE190E0998788874C835D836E836B
:100A90007F838CE090E09983888361E070E080E060
:100AA00090E005C0440F551F661F771FDECFDF9112
:100AB000CF910895CF93DF93DC018091E1011A96E5
:100AC000ED91FC911B97823229F4828193810A97E0
:100AD000099710F182819381895791098335910596
:100AE000B8F48091E101813298F084819581CA97B0
:100AF000899770F4EF01269683E090E040E050E0A3
:100B0000BA01288139812A50310929303105D0F0C4
:100B100060E070E0CB0150C02091E101CF01820F75
:100B2000911D820F911DEC012297888199810A976E
:100B3000099780F619961C921E9218974FEF5FEF57
:100B4000BA012CC02A813B8126513109213131055E
:100B5000C0F4440F551F661F771F4160029624960C
:100B60008332910571F6EA5BFF4F808191810A978C
:100B7000099770F680E190E019969C938E931897F0
:100B80000DC02A813B81265031092730310508F0FC
:100B9000BFCF440F551F661F771FE0CF14964D93AC
:100BA0005D936D937C93179788E090E08D939C9371
:100BB00061E070E080E090E0DF91CF910895CF9305
:100BC000DF93DC011A96ED91FC911B978281938152
:100BD0008C549109C59768F48091E101843029F41F
:100BE0008481958180974797D8F08091E101843482
:100BF00020F460E070E0CB014EC08481958189547F
:100C00009109C397B0F7EF012696EA57FF4F40E0EE
:100C100050E0BA018881998109970997E0F0E9CFFE
:100C2000868197810997099700F719961C921E9261
:100C300018974FEF5FEFBA0114964D935D936D9344
:100C40007C9317978BE090E08D939C9361E070E02C
:100C500080E090E020C08A819B814697419780F494
:100C6000440F551F661F771F41602496CE17DF077C
:100C700089F680E290E019969C938E931897DCCFCA
:100C80008A819B810697079708F0B3CF440F551FC1
:100C9000661F771FEACFDF91CF9108958F929F92C1
:100CA000AF92BF92CF92DF92EF92FF92CF93DF93FA
:100CB000EC0180E090E00E946F0A4B015C01BE01F4
:100CC00080E090E00E946F0A6B017C012DEC3CEC0F
:100CD0004CE45FE30E94210B9B01AC01C501B40110
:100CE0000E94C20987FD17C02DEC3CEC4CE45FE389
:100CF000C501B4010E94210B9B01AC01C701B601E3
:100D00000E94C209082E000C990B8827990F881F92
:100D10009927019602C080E090E0DF91CF91FF908B
:100D2000EF90DF90CF90BF90AF909F908F900895FD
:100D30008F929F92AF92BF92CF92DF92EF92FF92EB
:100D40000F931F93CF93DF9300D000D0CDB7DEB7C2
:100D5000DC011C96ED90FC901D97B6E0EB16F104BB
:100D60000CF44BC06C01EE0CFF1C06E010E025EC0F
:100D70003DE94CE151E8D6011A96ED91FC911B97A3
:100D8000DF01A00FB11F6D917C91C8010497E80F9E
:100D9000F91F8081918129833A834B835C830E9470
:100DA0004E06FC0129813A814B815C8163E971E047
:100DB00080E091E00E94F4084F01FF0FAA08BB08F1
:100DC000A501940126273727482759270E5F1F4F73
:100DD0000E151F0581F6F60124833583468357835C
:100DE00080E290E0918780878FEF9FEF91838083EF
:100DF00061E070E080E090E003C060E070E0CB0173
:100E00000F900F900F900F90DF91CF911F910F9146
:100E1000FF90EF90DF90CF90BF90AF909F908F901A
:100E2000089582E0809315011092E1010895F894ED
:100E300082E08093B0008093B10094E69093B30079
:100E40001092B200809370007894E4E1F1E0818325
:100E50001092E10188E0808320980895CF93DF937A
:100E6000EC0189E191E09B878A878091E10190E024
:100E70009D878C8780911501853009F054C0CE0183
:100E80000E94C800672B682B692B19F081E090E065
:100E90004CC0CE010E943801672B682B692BB1F73B
:100EA000CE010E94B101672B682B692B79F7CE0127
:100EB0000E942802672B682B692B41F7CE010E9404
:100EC0000703672B682B692B09F7CE010E94AE033D
:100ED000672B682B692BD1F6CE010E949404672BF7
:100EE000682B692B99F6CE010E94F604672B682BBC
:100EF000692B61F6CE010E945A05672B682B692B7E
:100F000029F6CE010E94DF05672B682B692B09F0BB
:100F1000BDCFCE010E949806672B682B692B09F084
:100F2000B5CF0E94110780E090E0DF91CF91089546
:100F3000CF93DF9390E0FC01ED51FE4F2491FC0133
:100F4000EE51FE4F8491882361F190E0880F991F44
:100F5000FC01EE5EFE4FC591D491FC01EC51FE4FB9
:100F6000A591B491611109C09FB7F894888120952B
:100F700082238883EC912E230BC0623061F49FB7EB
:100F8000F8943881822F809583238883EC912E2BCF
:100F90002C939FBF06C08FB7F894E8812E2B28832F
:100FA0008FBFDF91CF91089590E0FC01E851FE4F93
:100FB0002491FC01ED51FE4F3491FC01EE51FE4FA6
:100FC000E491EE23B9F1222339F1233091F038F482
:100FD0002130A9F0223001F584B58F7D12C0273071
:100FE00091F02830A1F02430B9F4809180008F7DF9
:100FF00003C0809180008F77809380000DC084B5FE
:101000008F7784BD09C08091B0008F7703C0809135
:10101000B0008F7D8093B000F0E0EE0FFF1FEA512B
:10102000FE4FA591B491EC913E2381E090E021F434
:1010300080E0089580E090E008951F920F920FB62F
:101040000F9211242F933F938F939F93EF93FF93CE
:1010500083B18095817020911701309118012F5F25
:101060003F4F30931801209317019091E10194367E
:1010700018F095E090931501909115019330B9F017
:1010800018F4923039F057C0943059F1953009F482
:101090004CC051C081114FC02091170130911801EF
:1010A0002436310508F443C01092E1011CC08823A6
:1010B00009F441C0E091E10191E09E0F9093E101BC
:1010C000F0E02091170130911801EE0FFF1FEC5E48
:1010D000FE4F36832583109218011092170194E079
:1010E00021C0811117C0E091E10191E09E0F909322
:1010F000E101F0E02091170130911801EE0FFF1F80
:10110000EC5EFE4F36832583109218011092170172
:1011100093E008C020911701309118012536310560
:1011200050F095E09093150106C0811104C0109213
:1011300018011092170190911601992339F081112D
:1011400002C085B102C085B1877285B9FF91EF9168
:101150009F918F913F912F910F900FBE0F901F90F5
:101160001895CF93DF93CDB7DEB7C154D1090FB631
:10117000F894DEBF0FBECDBF82E1E0E0F1E0DE011A
:10118000929601900D928A95E1F70E941707F894C4
:101190000E945300CE0182960E946D007894CE0189
:1011A000C4960E942E07892BA9F068AD79AD8AAD4F
:1011B0009BAD20E1AE014F5F5F4F0E948E0BF89414
:1011C000CE0101960E946D008AE00E94660078942C
:1011D0000E9411072FEF81EE94E021508040904053
:1011E000E1F700C00000DBCFDB018F939F930E94EB
:1011F0000409BF91AF91A29F800D911DA39F900DF7
:10120000B29F900D112408950E944609A59F900D4C
:10121000B49F900DA49F800D911D112408950F93EC
:10122000083090F0982F872F762F652F542F432F5B
:10123000322F22270850F4CF220F331F441F551F8F
:10124000661F771F881F991F0A95B2F70F9108959F
:1012500097FB10F8169400080F93083098F0085088
:10126000232F342F452F562F672F782F892F902D1E
:10127000F4CF0594979587957795679557954795FA
:10128000379527950A95AAF70F910895A29FB00167
:10129000B39FC001A39F700D811D1124911DB29FAA
:1012A000700D811D1124911D08955058BB27AA2748
:1012B0000E946D090C94E70A0E94D90A38F00E9436
:1012C000E00A20F039F49F3F19F426F40C94D60A72
:1012D0000EF4E095E7FB0C94D00AE92F0E94F80A7F
:1012E00058F3BA17620773078407950720F079F45B
:1012F000A6F50C941A0B0EF4E0950B2EBA2FA02D28
:101300000B01B90190010C01CA01A0011124FF27B2
:10131000591B99F0593F50F4503E68F11A16F040AD
:10132000A22F232F342F4427585FF3CF46953795AC
:101330002795A795F0405395C9F77EF41F16BA0B71
:10134000620B730B840BBAF09150A1F0FF0FBB1F1F
:10135000661F771F881FC2F70EC0BA0F621F731F68
:10136000841F48F4879577956795B795F7959E3FC5
:1013700008F0B0CF9395880F08F09927EE0F979556
:10138000879508950E94AC0A08F481E008950E94B0
:10139000DB090C94E70A0E94E00A58F00E94D90A7F
:1013A00040F029F45F3F29F00C94D00A51110C94BD
:1013B0001B0B0C94D60A0E94F80A68F39923B1F328
:1013C000552391F3951B550BBB27AA27621773076B
:1013D000840738F09F5F5F4F220F331F441FAA1FFF
:1013E000A9F335D00E2E3AF0E0E832D091505040BB
:1013F000E695001CCAF72BD0FE2F29D0660F771F69
:10140000881FBB1F261737074807AB07B0E809F04E
:10141000BB0B802DBF01FF2793585F4F3AF09E3FD3
:10142000510578F00C94D00A0C941B0B5F3FE4F349
:10143000983ED4F3869577956795B795F7959F5F16
:10144000C9F7880F911D9695879597F90895E1E062
:10145000660F771F881FBB1F621773078407BA07C1
:1014600020F0621B730B840BBA0BEE1F88F7E0951C
:1014700008950E94400A6894B1110C941B0B0895C2
:101480000E94000B88F09F5798F0B92F9927B75109
:10149000B0F0E1F0660F771F881F991F1AF0BA9518
:1014A000C9F714C0B13091F00E941A0BB1E0089551
:1014B0000C941A0B672F782F8827B85F39F0B93F43
:1014C000CCF3869577956795B395D9F73EF49095CB
:1014D0008095709561957F4F8F4F9F4F0895E89449
:1014E00009C097FB3EF490958095709561957F4F6C
:1014F0008F4F9F4F9923A9F0F92F96E9BB2793951A
:10150000F695879577956795B795F111F8CFFAF429
:10151000BB0F11F460FF1BC06F5F7F4F8F4F9F4F5A
:1015200016C0882311F096E911C0772321F09EE8B8
:10153000872F762F05C0662371F096E8862F70E01E
:1015400060E02AF09A95660F771F881FDAF7880FF8
:101550009695879597F90895990F0008550FAA0B4E
:10156000E0E8FEEF16161706E807F907C0F01216B6
:101570001306E407F50798F0621B730B840B950BB9
:1015800039F40A2661F0232B242B252B21F408950E
:101590000A2609F4A140A6958FEF811D811D0895AB
:1015A00097F99F6780E870E060E008959FEF80EC16
:1015B000089500240A9416161706180609060895B9
:1015C00000240A9412161306140605060895092E1F
:1015D0000394000C11F4882352F0BB0F40F4BF2B8E
:1015E00011F460FF04C06F5F7F4F8F4F9F4F0895CE
:1015F00057FD9058440F551F59F05F3F71F04795C4
:10160000880F97FB991F61F09F3F79F087950895A8
:10161000121613061406551FF2CF4695F1DF08C0C7
:10162000161617061806991FF1CF869571056105E4
:1016300008940895E894BB2766277727CB0197F98C
:1016400008950E94340B0C94E70A0E94D90A38F0DE
:101650000E94E00A20F0952311F00C94D00A0C941B
:10166000D60A11240C941B0B0E94F80A70F3959F64
:10167000C1F3950F50E0551F629FF001729FBB2789
:10168000F00DB11D639FAA27F00DB11DAA1F649F25
:101690006627B00DA11D661F829F2227B00DA11DD8
:1016A000621F739FB00DA11D621F839FA00D611D5E
:1016B000221F749F3327A00D611D231F849F600D7F
:1016C000211D822F762F6A2F11249F5750409AF0A8
:1016D000F1F088234AF0EE0FFF1FBB1F661F771F34
:1016E000881F91505040A9F79E3F510580F00C94FF
:1016F000D00A0C941B0B5F3FE4F3983ED4F386951D
:1017000077956795B795F795E7959F5FC1F7FE2B9E
:10171000880F911D9695879597F90895BB27FA0133
:10172000A62F6217710581059105330B30FB66F01A
:10173000AA27660F771F881F991FAA1FA21710F0EC
:10174000A21B63953850A9F7A05DAA3308F0A95DE4
:10175000A19336F7B111B1931082CA010C94B00B6A
:10176000DC01FC01672F71917723E1F7329704C008
:101770007C916D9370836291AE17BF07C8F3089593
:04178000F894FFCF0B
:10178400726561647920746F20726563656976653A
:021794000A0049
:00000001FF
