:100000000C9439000C9456000C9456000C94560035
:100010000C9456000C9456000C9456000C944D0A07
:100020000C9456000C9456000C9456000C945600F8
:100030000C9456000C9456000C9456000C945600E8
:100040000C9456000C9456000C9456000C945600D8
:100050000C9456000C9456000C9456000C945600C8
:100060000C9456000C9456000000000000000000A4
:10007000000011241FBECFEFD8E0DEBFCDBF12E0DD
:10008000A0E0B1E0EAE2F7E202C005900D92AA31E9
:10009000B107D9F712E0AAE1B2E001C01D92A83E73
:1000A000B107E1F70E94E50A0C9493130C94000049
:1000B0001092C50087E68093C40088E18093C10058
:1000C00086E08093C20008958091C00087FFFCCF36
:1000D0008091C6000895982F8091C00085FFFCCFC5
:1000E0009093C6000895FC0107C08091C00085FF71
:1000F000FCCF9093C600319690819923B1F7089573
:10010000DF92EF92FF920F931F93CF93DF93EC0157
:10011000882777FD8095982F0E94C60F7B018C0160
:1001200020E030E040E45FE30E94F00D20E030E0AA
:1001300048E452E40E94EA0E0E942410C617D70732
:100140001CF420E030E020C0DD24C801B70120E02D
:1001500030E040EA5FE30E94F00D20E030E048E448
:1001600052E40E94EA0E20E030E040E85FE30E94A3
:10017000C30D0E9424106C177D0714F4DD24D39462
:1001800081E0D8262D2D30E0C901DF91CF911F915C
:100190000F91FF90EF90DF9008956C597F4F0E9470
:1001A00080000895645670400E9480000895AF92C8
:1001B000BF92CF92DF92EF92FF920F931F93CF9354
:1001C000DF936C01DC011A96CD91DC911B978A813B
:1001D0009B8168E273E20E94CD00892B09F486C0FE
:1001E0008091E7028430F9F48C819D816AEC78E09B
:1001F0000E94D200892BB9F08E819F8160E372E06A
:100200000E94CD00892B79F0F601118610868FEFC0
:100210009FEFAFEFBFEF84839583A683B78381E021
:1002200090E0918380838091E702843408F45EC07B
:10023000D6011A96CD91DC911B978C819D8164E942
:1002400071E10E94D200892B09F450C02696EE2459
:10025000FF24870123E0A22EB12C8881998160E3DD
:1002600072E00E94CD00892B09F440C08A819B81F5
:1002700060E476E00E94D200892B69F0EE0CFF1C4E
:10028000001F111F81E090E0A0E0B0E0E82AF92A09
:100290000A2B1B2B0CC08A819B8160E372E00E94B9
:1002A000D200892B19F1EE0CFF1C001F111F2496A0
:1002B00091E4A916B10429F0A2E0B0E0AA0EBB1E99
:1002C000CCCF80E290E0F60191878087D60114962A
:1002D000ED92FD920D931C93179781E090E08D9322
:1002E0009C9321E030E040E050E004C020E030E0AA
:1002F00040E050E0B901CA01DF91CF911F910F9109
:10030000FF90EF90DF90CF90BF90AF900895AF92A5
:10031000BF92CF92DF92EF92FF920F931F93CF93F2
:10032000DF936C018091E7028A3108F484C0D60122
:100330001A96ED91FC911B9780819181845F914089
:1003400078F4F601118610868FEF9FEFAFEFBFEFC5
:1003500084839583A683B78382E090E09183808332
:10036000D6011A96CD91DC911B978A819B8160E61C
:1003700079E00E94CD00892B09F45DC02696EE2419
:10038000FF24870162E0A62EB12C30C0229788811D
:100390009981229668E572E00E94D200892B79F15A
:1003A0008881998160EB74E00E94CD00892B69F00F
:1003B000EE0CFF1C001F111F81E090E0A0E0B0E0F8
:1003C000E82AF92A0A2B1B2B0CC08881998168E541
:1003D00072E00E94CD00892B71F1EE0CFF1C001F12
:1003E000111FA2E0B0E0AA0EBB1E24968091E70286
:1003F00095012F5F3F4F90E0281739073CF2C50168
:10040000019795958795F601918780870C971CF445
:100410001186108610C0D6011496ED92FD920D93B0
:100420001C93179782E090E08D939C9321E030E03D
:1004300040E050E004C020E030E040E050E0B9018E
:10044000CA01DF91CF911F910F91FF90EF90DF9044
:10045000CF90BF90AF900895AF92BF92CF92DF92AE
:10046000EF92FF920F931F93CF93DF936C018091D4
:10047000E7028A3108F48DC0D6011A96ED91FC91FD
:100480001B97808191818052934078F4F601118608
:1004900010868FEF9FEFAFEFBFEF84839583A68326
:1004A000B78389E090E091838083D6011A96CD913D
:1004B000DC911B978A819B816CEA7DE00E94CD00D4
:1004C000892B09F466C08C819D816CEA7DE00E94D5
:1004D000CD00892B09F45DC02896EE24FF24870106
:1004E000A3E0AA2EB12C30C0229788819981229650
:1004F00066EB73E00E94D200892B79F188819981A3
:1005000060E679E00E94CD00892B69F0EE0CFF1CBB
:10051000001F111F81E090E0A0E0B0E0E82AF92A76
:100520000A2B1B2B0CC0888199816CEB72E00E9416
:10053000CD00892B71F1EE0CFF1C001F111FA2E0F2
:10054000B0E0AA0EBB1E24968091E70295012F5FB2
:100550003F4F90E0281739073CF2C5010197959568
:100560008795F601918780870C971CF41186108679
:1005700010C0D6011496ED92FD920D931C9317971F
:1005800089E090E08D939C9321E030E040E050E0E2
:1005900004C020E030E040E050E0B901CA01DF9142
:1005A000CF911F910F91FF90EF90DF90CF90BF9070
:1005B000AF9008956F927F928F929F92AF92BF9269
:1005C000CF92DF92EF92FF920F931F93CF93DF931F
:1005D0004C018091E702823208F47AC0D4011A9665
:1005E000CD91DC911B978A819B816EE571E00E9421
:1005F000CD00892B09F46CC036E0A32EB12CAC0ED3
:10060000BD1EEE24FF24870122E0C22ED12C37C06C
:10061000E5012297888199816EE977E00E94CD00FB
:10062000892B69F0EE0CFF1C001F111F81E090E088
:10063000A0E0B0E0E82AF92A0A2B1B2B0DC0888124
:1006400099816EEE72E00E94CD00892B09F440C0C2
:10065000EE0CFF1C001F111FD5018D919C916EE5C2
:1006600071E00E94D200E4E0F0E0AE0EBF1E892BE4
:1006700011F463010FC022E030E0C20ED31E360138
:100680000894611C711C8091E70290E0681679065D
:100690000CF4BECFC601019795958795D4011996A4
:1006A0009C938E93189740972CF419961C921E9247
:1006B00018970EC0F401E482F582068317838AE05E
:1006C00090E09183808321E030E040E050E004C07E
:1006D00020E030E040E050E0B901CA01DF91CF9165
:1006E0001F910F91FF90EF90DF90CF90BF90AF9050
:1006F0009F908F907F906F9008956F927F928F92CE
:100700009F92AF92BF92CF92DF92EF92FF920F93A0
:100710001F93CF93DF93FC013B015A016901DB0179
:100720002D913C91848595852817390724F071E037
:10073000E72EF12C56C0C901880F991F0284F3855A
:10074000E02DE80FF91F80819181982E892E20FDE0
:1007500006C00CE91FEF51E0E52EF12C04C004E6C1
:1007600010E0EE24FF24B8016C0D7D1D892D982D1D
:100770000E948000892B19F021E030E020C0E601C2
:10078000CC0FDD1FB8016C0F7D1F892D982D0E94A5
:100790008000892B19F022E030E011C0CC0DDD1D66
:1007A0000C0F1D1F892D982DB8010E948000892BE8
:1007B00021F4EE24EA94FE2C14C023E030E0F5018D
:1007C00080819181019691838083821793074CF0F9
:1007D00011821082D3018D919C91119701968D9376
:1007E0009C93C701DF91CF911F910F91FF90EF90E4
:1007F000DF90CF90BF90AF909F908F907F906F9041
:1008000008954F925F926F927F928F929F92AF92D4
:10081000BF92CF92DF92EF92FF920F931F93DF93DD
:10082000CF9300D000D0CDB7DEB76C018091E70246
:100830008D3008F47CC081E090E09A8389831C822B
:100840001B82A3E0AA2EB12CAC0EBD1EC6014E0128
:100850000894811C911CB401A50129E733E00E9492
:100860007D03892B09F063C0C601B401A50129E706
:1008700033E00E947D03019709F059C0C601B4011D
:10088000A50129E733E00E947D03892B09F04FC0C1
:10089000EE24FF2487016624772425012DC0C6019C
:1008A000B401A20129E733E00E947D035C01C60187
:1008B000B401A20129E733E00E947D0321E0A216E2
:1008C000B10479F4892B99F5EE0CFF1C001F111F60
:1008D00081E090E0A0E0B0E0E82AF92A0A2B1B2B87
:1008E00008C0AB2821F5019711F5EE0CFF1C001F85
:1008F000111F0894611C711C8091E70290E029810E
:100900003A81281739075CF2D60119967C926E92CB
:100910001897F601E482F5820683178383E090E05E
:100920009183808321E030E040E050E004C020E08B
:1009300030E040E050E0B901CA010F900F900F90F5
:100940000F90CF91DF911F910F91FF90EF90DF906B
:10095000CF90BF90AF909F908F907F906F905F905F
:100960004F9008952F923F924F925F926F927F9295
:100970008F929F92AF92BF92CF92DF92EF92FF92AF
:100980000F931F93DF93CF9300D000D0CDB7DEB786
:100990005C01DC011C968D919C911D97181619061F
:1009A0000CF0B8C081E090E09A8389831A960D918B
:1009B0001C911B97F801828193816AE67AE00E947C
:1009C000CD00892B09F4A6C082E090E09A83898348
:1009D000D80114968D919C91159769E773E00E9458
:1009E000D200892B09F496C083E090E09A83898332
:1009F0001C821B8293E0C92ED12CCC0EDD1EC501BA
:100A00004E010894811C911CB401A6012CEB31E02D
:100A10000E947D03892B09F07DC0C501B401A601A8
:100A20002CEB31E00E947D03019709F073C0EE24A6
:100A3000FF24870166247724160124014EC0C501D6
:100A4000B201A1012CEB31E00E947D034C01B3E027
:100A50006B16710459F4C501B201A1012CEB31E010
:100A60000E947D038816990609F054C0C501B201A1
:100A7000A1012CEB31E00E947D036C01E3E06E16D6
:100A8000710451F4C501B201A1012CEB31E00E94C7
:100A90007D03C816D906F1F58114910489F4F1E0BB
:100AA000CF16D104B9F5EE0CFF1C001F111F81E019
:100AB00090E0A0E0B0E0E82AF92A0A2B1B2B0AC03C
:100AC00091E08916910431F5CD2821F5EE0CFF1C3B
:100AD000001F111F0894611C711C29813A81D501E6
:100AE0001C968D919C911D97281739070CF4A7CF60
:100AF00019967C926E921897F501E482F58206832E
:100B0000178384E090E09183808321E030E040E02F
:100B100050E004C020E030E040E050E0B901CA01FC
:100B20000F900F900F900F90CF91DF911F910F9129
:100B3000FF90EF90DF90CF90BF90AF909F908F90FD
:100B40007F906F905F904F903F902F9008956F929D
:100B50007F928F929F92AF92BF92CF92DF92EF924D
:100B6000FF920F931F93CF93DF937C01FC01C2850B
:100B7000D3858A819B816EEA7DE00E94CD00892B1E
:100B800009F474C08C819D8166ED76E00E94CD00F1
:100B9000892B09F46BC0269600E010E0DD24CC24FC
:100BA000992488247724662423E0A22EB12C8881FE
:100BB000998166EF71E00E94CD00892B09F456C03F
:100BC0008A819B816CED74E00E94D200892B69F0D0
:100BD00098014D2D5C2D692D782D872D962D01E0E6
:100BE0000E94C70B022F016013C08A819B8160E9BC
:100BF00071E00E94D200892BC9F198014D2D5C2D26
:100C0000692D782D872D962D01E00E94C70B022FAC
:100C1000132FD42EC52E962E872E782E692E24962D
:100C2000F1E6AF16B10429F082E090E0A80EB91EFB
:100C3000BECFC801F701048395834683578398018B
:100C4000872D962D00E20E94480BC901F7012283EF
:100C5000938387E090E09183808380E390E09187A5
:100C6000808721E030E040E050E004C020E030E048
:100C700040E050E0B901CA01DF91CF911F910F917F
:100C8000FF90EF90DF90CF90BF90AF909F908F90AC
:100C90007F906F9008958F929F92AF92BF92CF9264
:100CA000DF92EF92FF920F931F93CF93DF934C014C
:100CB000DC011A96CD90DC901B97F601828193811E
:100CC00060E47FE10E94CD00892B09F46EC0809121
:100CD000E702893308F469C0D60114968D919C917E
:100CE000159760EA7FE00E94D200892B09F45DC06D
:100CF000E6012696EE24FF24870153E0A52EB12CB1
:100D00008881998168E572E00E94CD00892B09F401
:100D10004CC08A819B8160E476E00E94D200892BDE
:100D200069F0EE0CFF1C001F111F81E090E0A0E0B5
:100D3000B0E0E82AF92A0A2B1B2B0CC08A819B8180
:100D400066E272E00E94D200892B79F1EE0CFF1C62
:100D5000001F111FA2E0B0E0AA0EBB1E2496BBE349
:100D6000AB16B10469F6E6E7F0E0CE0EDF1ED60161
:100D70008D919C9168E572E00E94CD00892BA9F0CD
:100D80008CE190E0F40191878087D4011496ED9274
:100D9000FD920D931C9317978CE090E08D939C939C
:100DA00021E030E040E050E004C020E030E040E0EE
:100DB00050E0B901CA01DF91CF911F910F91FF90CF
:100DC000EF90DF90CF90BF90AF909F908F9008955D
:100DD0008F929F92AF92BF92CF92DF92EF92FF924B
:100DE0000F931F93CF93DF936C018091E7028232C0
:100DF00071F5D6011A96CD91DC911B978A819B8162
:100E000068E572E00E94CD00892B09F18091E7022C
:100E100021E030E0281B3109220F331FC21BD30B06
:100E20008881998168E572E00E94CD00892B79F074
:100E3000F601118610868FEF9FEFAFEFBFEF84832F
:100E40009583A683B78388E090E091838083D60161
:100E50001A96AD90BC901B97F5018281938160E456
:100E60007FE10E94CD00892B09F46EC08091E702DA
:100E7000813208F469C0D50114968D919C91159723
:100E800060EA7FE00E94D200892B09F45DC0E50191
:100E90002696EE24FF248701E3E08E2E912C888194
:100EA000998168E572E00E94CD00892B09F44CC05D
:100EB0008A819B8160E476E00E94D200892B69F0F0
:100EC000EE0CFF1C001F111F81E090E0A0E0B0E0DD
:100ED000E82AF92A0A2B1B2B0CC08A819B8166E227
:100EE00072E00E94D200892B79F1EE0CFF1C001FEA
:100EF000111FA2E0B0E08A0E9B1E2496B3E28B166F
:100F0000910469F6E6E4F0E0AE0EBF1ED5018D91C6
:100F10009C9168E572E00E94CD00892BA9F080E1E8
:100F200090E0F60191878087D6011496ED92FD92AC
:100F30000D931C93179788E090E08D939C9321E08C
:100F400030E040E050E004C020E030E040E050E01D
:100F5000B901CA01DF91CF911F910F91FF90EF90DE
:100F6000DF90CF90BF90AF909F908F900895AF92F9
:100F7000BF92CF92DF92EF92FF920F931F93CF9386
:100F8000DF936C01DC011A96CD91DC911B978A816D
:100F90009B8168E873E10E94CD00892B09F486C02B
:100FA0008091E7028430F9F48C819D816AEC78E0CD
:100FB0000E94D200892BB9F08E819F8160E372E09C
:100FC0000E94CD00892B79F0F601118610868FEFF3
:100FD0009FEFAFEFBFEF84839583A683B7838BE04A
:100FE00090E0918380838091E702843408F45EC0AE
:100FF000D6011A96CD91DC911B978C819D8168E872
:1010000073E10E94D200892B09F450C02696EE2489
:10101000FF24870183E0A82EB12C8881998160E3A9
:1010200072E00E94CD00892B09F440C08A819B8127
:1010300060E476E00E94D200892B69F0EE0CFF1C80
:10104000001F111F81E090E0A0E0B0E0E82AF92A3B
:101050000A2B1B2B0CC08A819B8160E372E00E94EB
:10106000D200892B19F1EE0CFF1C001F111F2496D2
:1010700091E4A916B10429F0A2E0B0E0AA0EBB1ECB
:10108000CCCF80E290E0F60191878087D60114965C
:10109000ED92FD920D931C9317978BE090E08D934A
:1010A0009C9321E030E040E050E004C020E030E0DC
:1010B00040E050E0B901CA01DF91CF911F910F913B
:1010C000FF90EF90DF90CF90BF90AF900895AF92D8
:1010D000BF92CF92DF92EF92FF920F931F937C010A
:1010E00080E090E00E9478105B016C0100E010E06D
:1010F000C801B7010E9478107B018C012DEC3CECFB
:101100004CE45FE30E94F00D9B01AC01C601B50108
:101110000E94960F88231CF420E030E018C0C6011E
:10112000B5012DEC3CEC4CE45FE30E94F00D9B011B
:10113000AC01C801B7010E94960F282F332727FD65
:1011400030952227330F221F33272F5F3F4FC901CE
:101150001F910F91FF90EF90DF90CF90BF90AF90D5
:1011600008956F927F928F929F92AF92BF92CF928B
:10117000DF92EF92FF920F931F93CF93DF934C0177
:10118000FC0184859585863091052CF420E030E0C3
:1011900040E050E045C035ECA32E3DE9B32E3CE1E4
:1011A000C32E31E8D32EC6E0D0E03C01660C771C9C
:1011B00023C0F401A285B385FE013497EA0FFB1F1B
:1011C00080819181AC0FBD1F6D917C910E94670859
:1011D0007C01C601B50123E931E040E051E00E9405
:1011E000E6125B016C010027F7FC0095102FAE247E
:1011F000BF24C026D1262296C615D705D1F6F40104
:10120000A482B582C682D78280E290E091878087EF
:101210008FEF9FEF9183808321E030E040E050E04A
:10122000B901CA01DF91CF911F910F91FF90EF900B
:10123000DF90CF90BF90AF909F908F907F906F90F6
:10124000089582E080931B021092E7020895F894BB
:1012500092E09093B0009093B10084E68093B30045
:10126000E2EBF0E01082E08190937000789482E0ED
:1012700080931B021092E70288E080931A02209864
:101280000895CF93DF93EC018FE192E09B878A87EB
:101290008091E7028C871D8680911B02853009F0C2
:1012A00061C0CE010E94D7006115710581059105CD
:1012B00009F05BC0CE010E948701611571058105AF
:1012C000910509F052C0CE010E942C0261157105F2
:1012D0008105910509F049C0CE010E94DA0261152D
:1012E00071058105910509F040C0CE010E940104FD
:1012F0006115710581059105C1F5CE010E94B20409
:10130000611571058105910581F5CE010E94A70542
:10131000611571058105910541F5CE010E944B06CD
:10132000611571058105910501F5CE010E94E80660
:101330006115710581059105C1F4CE010E94B707C1
:10134000611571058105910581F4CE010E94B108F6
:10135000611571058105910541F482E080931B02BE
:101360001092E70220E030E002C021E030E0C90145
:10137000DF91CF910895CF93DF93482F50E0CA01BA
:1013800081599F4FFC01349142595F4FFA0184917A
:10139000882369F190E0880F991FFC01E859FF4FFD
:1013A000A591B491FC01E459FF4FC591D4916623F6
:1013B00051F42FB7F8948C91932F909589238C93A7
:1013C000888189230BC0623061F42FB7F8948C9127
:1013D000932F909589238C938881832B88832FBFAB
:1013E00006C09FB7F8948C91832B8C939FBFDF919D
:1013F000CF910895682F70E0CB0180599F4FFC0179
:101400002491CB0181599F4FFC01449162597F4F38
:10141000FB019491992319F420E030E03CC0222391
:1014200051F1233071F0243028F42130A1F0223022
:1014300011F514C02730B1F02830C1F02430D9F4B0
:1014400004C0809180008F7703C0809180008F7DE1
:101450008093800010C084B58F7702C084B58F7DE3
:1014600084BD09C08091B0008F7703C08091B00027
:101470008F7D8093B000892F90E0880F991F865947
:101480009F4FFC01A591B4918C9120E030E0842322
:1014900011F021E030E0C90108951F920F920FB6BC
:1014A0000F9211242F933F934F938F939F93EF931A
:1014B000FF9343B14095417080911D0290911E02AF
:1014C000019690931E0280931D028091E70284365C
:1014D00018F085E080931B0280911B028330D1F0CD
:1014E000843020F4823009F059C006C0843071F194
:1014F000853009F053C04CC0442309F04FC080919F
:101500001D0290911E028436910508F443C010928A
:10151000E7021EC0413009F041C08091E702E82F88
:10152000F0E020911D0230911E02EE0FFF1FE65EDB
:10153000FD4F368325838F5F8093E70210921E0252
:1015400010921D0284E080931B0228C04423B9F44A
:101550008091E702E82FF0E020911D0230911E02F9
:10156000EE0FFF1FE65EFD4F368325838F5F80936E
:10157000E70210921E0210921D0283E0E4CF8091D8
:101580001D0290911E028536910540F085E0DBCF6B
:10159000442321F410921E0210921D0280911C021D
:1015A000882339F0442311F485B102C085B18772D4
:1015B00085B9FF91EF919F918F914F913F912F911D
:1015C0000F900FBE0F901F901895AF92BF92CF92C1
:1015D000DF92EF92FF920F931F93DF93CF93CDB7DC
:1015E000DEB7C154D0400FB6F894DEBF0FBECDBFFA
:1015F000DE011F96E0E0F1E082E101900D92815062
:10160000E1F70E942709F8941092C50087E68093BD
:10161000C40088E18093C10086E08093C200CE01BF
:101620000F960E94730078946E010894C11CD11C1F
:101630008E010F5D1F4F4AE0A42E32E0B32E20E949
:10164000E22E21E0F22EC6010E944109892BC1F051
:101650006D817E818F819885A80120E130E00E9414
:101660003C13F894C8010E9473008091C00085FF6C
:10167000FCCFA092C6007894B0921B021092E702B1
:1016800088EE93E0F7013197F1F70197E1F2FACF95
:10169000EF92FF920F93DF93CF93CDB7DEB76097B2
:1016A0000FB6F894DEBF0FBECDBFA82F002309F4FC
:1016B00061C07E010894E11CF11C88E0F7011192E1
:1016C0008A95E9F729833A834B835C836D837E8314
:1016D000AF83988780E2801BE82FFF27E7FDF09516
:1016E0004D815E816F817885181684F01D861E8677
:1016F0001F86188A882799278E1B9F0B04C0769512
:101700006795579547958A95D2F728C0202F33279C
:1017100027FD3095DB01CA01022E04C0B695A795BE
:10172000979587950A94D2F78D879E87AF87B88B58
:1017300004C0440F551F661F771FEA95D2F78981B1
:101740009A81AB81BC8104C0B695A7959795879582
:101750002A95D2F7482B592B6A2B7B2B49875A871E
:101760006B877C8729853A854B855C856D857E8571
:10177000AF8598898A2F60960FB6F894DEBF0FBEAA
:10178000CDBFCF91DF910F91FF90EF900895EF9231
:10179000FF920F93DF93CF93CDB7DEB760970FB66D
:1017A000F894DEBF0FBECDBFA82F002309F461C09F
:1017B0007E010894E11CF11C88E0F70111928A95E2
:1017C000E9F729833A834B835C836D837E83AF8300
:1017D000988780E2801BE82FFF27E7FDF09549817D
:1017E0005A816B817C81181684F019861A861B86B3
:1017F0001C86882799278E1B9F0B04C0440F551FFA
:10180000661F771F8A95D2F728C0202F332727FD20
:101810003095DB01CA01022E04C0880F991FAA1F50
:10182000BB1F0A94D2F789879A87AB87BC8704C00D
:101830007695679557954795EA95D2F78D819E8164
:10184000AF81B88504C0880F991FAA1FBB1F2A95B6
:10185000D2F7482B592B6A2B7B2B4D875E876F87DE
:10186000788B29853A854B855C856D857E85AF852E
:1018700098898A2F60960FB6F894DEBF0FBECDBF51
:10188000CF91DF910F91FF90EF900895A0E0B0E02D
:10189000ECE4FCE00C940513DC012B01FA019C91B3
:1018A000923008F439C1EB018881823008F433C1E9
:1018B000943069F4843009F02FC111969C911197EE
:1018C0008981981709F428C1A2E1B1E025C18430CB
:1018D00009F421C18230A9F4923009F01DC19A01A6
:1018E000AD0188E0EA010990AE01E90109929E018B
:1018F0008150C1F7E201898111969C9189238183EE
:1019000008C1923009F407C112962D903C901397AC
:10191000EB018A819B811496AD90BD90CD90DC90B7
:101920001797EC80FD800E811F819101281B390BD8
:10193000B90137FF04C066277727621B730B60323B
:1019400071050CF061C0121613066CF537014801E1
:10195000062E04C096948794779467940A94D2F7DD
:1019600021E030E040E050E004C0220F331F441F6C
:10197000551F6A95D2F721503040404050402E21EB
:101980003F2140235123211531054105510521F007
:1019900021E030E040E050E079018A01E628F728B4
:1019A000082919293CC0232BD1F1260E371E3501F9
:1019B0004601062E04C096948794779467940A94FF
:1019C000D2F721E030E040E050E004C0220F331FA6
:1019D000441F551F6A95D2F7215030404040504077
:1019E0002A213B214C215D2121153105410551055D
:1019F00021F021E030E040E050E059016A01A628E2
:101A0000B728C828D9280BC0821593052CF01C01D3
:101A1000AA24BB24650103C0EE24FF24870111968C
:101A20009C91D20111968C91981709F445C0992385
:101A300039F0A80197012A193B094C095D0906C034
:101A4000A60195012E193F09400B510B57FD08C007
:101A500011823382228224833583468357831DC0BB
:101A600081E081833382228288279927DC01821BCF
:101A7000930BA40BB50B84839583A683B7830DC00A
:101A8000220F331F441F551F2483358346835783FA
:101A9000828193810197938382832481358146815A
:101AA0005781DA01C9010197A109B1098F5F9F4FE1
:101AB000AF4FBF4328F30BC0918333822282EA0CDD
:101AC000FB1C0C1D1D1DE482F5820683178383E039
:101AD0008083248135814681578157FF1AC0C9010F
:101AE000AA2797FDA095BA2F81709070A070B07052
:101AF0005695479537952795822B932BA42BB52B7D
:101B000084839583A683B78382819381019693838F
:101B10008283DF0101C0D201CD01CDB7DEB7E2E1A2
:101B20000C942113A0E2B0E0E8E9FDE00C9411135D
:101B300069837A838B839C832D833E834F8358876D
:101B4000E9E0EE2EF12CEC0EFD1ECE010196B70160
:101B50000E9415128E010F5E1F4FCE010596B8012F
:101B60000E9415128A8991E089278A8BC701B801E2
:101B7000AE01475E5F4F0E94460C0E944011A09646
:101B8000E6E00C942D13A0E2B0E0E9ECFDE00C944B
:101B9000111369837A838B839C832D833E834F83C8
:101BA0005887F9E0EF2EF12CEC0EFD1ECE010196C8
:101BB000B7010E9415128E010F5E1F4FCE010596D0
:101BC000B8010E941512C701B801AE01475E5F4F10
:101BD0000E94460C0E944011A096E6E00C942D1342
:101BE000A0E2B0E0E6EFFDE00C94051369837A8390
:101BF0008B839C832D833E834F835887CE01019630
:101C0000BE01675F7F4F0E941512CE010596BE018F
:101C10006F5E7F4F0E9415129985923088F08989F6
:101C20008230C8F0943019F4823051F404C084300A
:101C300029F4923081F482E191E0C6C0923049F4F7
:101C400020E09A858A89981321E02A87CE01099697
:101C5000BBC0823049F420E09A858A89981321E03C
:101C60002A8BCE014196B0C02D843E844F84588883
:101C70006D887E888F88988CEE24FF248701AA24A3
:101C8000BB24650140E050E060E070E0E0E0F0E09F
:101C9000C10181709070892BE9F0E60CF71C081DDA
:101CA000191D9A01AB012A0D3B1D4C1D5D1D80E0E5
:101CB00090E0A0E0B0E0E614F7040805190520F470
:101CC00081E090E0A0E0B0E0BA01A901480F591FFF
:101CD0006A1F7B1FAA0CBB1CCC1CDD1C97FE08C016
:101CE00081E090E0A0E0B0E0A82AB92ACA2ADB2A65
:101CF0003196E032F10549F0660C771C881C991C7E
:101D00005694479437942794C3CFFA85EA892B8950
:101D10003C898B859C85280F391F2E5F3F4F17C04C
:101D2000CA0181709070892B61F016950795F79420
:101D3000E79480E090E0A0E0B0E8E82AF92A0A2BD6
:101D40001B2B76956795579547952F5F3F4F77FDEE
:101D5000E7CF0CC0440F551F661F771F17FD41606A
:101D6000EE0CFF1C001F111F21503040403090E04E
:101D7000590790E0690790E4790760F32B8F3C8F57
:101D8000DB01CA018F779070A070B070803491052C
:101D9000A105B10561F447FD0AC0E114F104010594
:101DA000110529F0405C5F4F6F4F7F4F40781A8ECE
:101DB000FE1711F081E08A8F4D8F5E8F6F8F78A3B1
:101DC00083E0898FCE0149960E944011A096E2E1FE
:101DD0000C942113A8E1B0E0E0EFFEE00C940D13A9
:101DE00069837A838B839C832D833E834F835887BB
:101DF000B9E0EB2EF12CEC0EFD1ECE010196B701E1
:101E00000E9415128E010F5E1F4FCE010596B8017C
:101E10000E9415122985223008F47EC0398932309B
:101E200010F4B8017CC08A859A8989278A87243072
:101E300011F0223031F4231709F06EC062E171E035
:101E40006EC0343039F41D861E861F86188A1C86A3
:101E50001B8604C0323021F484E08987B7015FC05B
:101E60002B853C858B899C89281B390B3C872B87CC
:101E7000ED84FE840F851889AD88BE88CF88D88C04
:101E8000EA14FB040C051D0540F4EE0CFF1C001FBA
:101E9000111F215030403C872B8720E030E040E08C
:101EA00050E080E090E0A0E0B0E460E070E0EA1490
:101EB000FB040C051D0540F0282B392B4A2B5B2B0E
:101EC000EA18FB080C091D09B695A7959795879503
:101ED000EE0CFF1C001F111F6F5F7F4F6F317105EC
:101EE00031F7DA01C9018F779070A070B07080343B
:101EF0009105A105B10561F427FD0AC0E114F104C3
:101F00000105110529F0205C3F4F4F4F5F4F2078AE
:101F10002D873E874F87588BBE01675F7F4FCB0170
:101F20000E9440116896EAE00C942913A8E1B0E001
:101F3000ECE9FFE00C94111369837A838B839C8313
:101F40002D833E834F83588789E0E82EF12CEC0ED9
:101F5000FD1ECE010196B7010E9415128E010F5E83
:101F60001F4FCE010596B8010E9415128985823057
:101F700040F08989823028F0C701B8010E948D1293
:101F800001C081E06896E6E00C942D13A8E0B0E073
:101F9000ECECFFE00C940E139B01AC0183E0898311
:101FA000DA01C9018827B7FD83959927AA27BB279E
:101FB000B82E211531054105510519F482E08983B8
:101FC0003AC08823A9F0203080E0380780E0480735
:101FD00080E8580729F460E070E080E09FEC30C0B2
:101FE000EE24FF248701E21AF30A040B150B02C04A
:101FF00079018A018EE1C82ED12CDC82CB82ED8260
:10200000FE820F831887C801B7010E94F110019763
:102010001816190684F4082E04C0EE0CFF1C001FCD
:10202000111F0A94D2F7ED82FE820F831887C81A17
:10203000D90ADC82CB82BA82CE0101960E9440117D
:102040002896E9E00C942A13ACE0B0E0EAE2F0E173
:102050000C94151369837A838B839C83CE0101963C
:10206000BE016B5F7F4F0E9415128D81823061F13E
:10207000823050F1843021F48E81882351F12EC0BA
:102080002F81388537FD20C06E812F3131051CF03E
:102090006623F9F023C08EE190E0821B930B298523
:1020A0003A854B855C8504C05695479537952795AD
:1020B0008A95D2F76623B1F05095409530952195D9
:1020C0003F4F4F4F5F4F0EC020E030E040E050E008
:1020D00009C02FEF3FEF4FEF5FE704C020E030E093
:1020E00040E050E8B901CA012C96E2E00C943113AB
:1020F000A8E0B0E0EEE7F0E10C940D137B018C0159
:10210000611571058105910519F482E0898360C02C
:1021100083E089838EE1C82ED12CDC82CB82ED82D4
:10212000FE820F831887C801B7010E94F110FC01DD
:102130003197F7FF3BC0222733272E1B3F0B570158
:102140006801022E04C0D694C794B794A7940A9449
:10215000D2F740E050E060E070E081E090E0A0E085
:10216000B0E004C0880F991FAA1FBB1F2A95D2F7A1
:102170000197A109B1098E219F21A023B1230097C6
:10218000A105B10521F041E050E060E070E04A298E
:102190005B296C297D294D835E836F8378878EE16F
:1021A00090E08E1B9F0B9C838B8312C0309781F035
:1021B0000E2E04C0EE0CFF1C001F111F0A94D2F754
:1021C000ED82FE820F831887CE1ADF0ADC82CB8273
:1021D0001A82CE0101960E9440112896EAE00C94E2
:1021E0002913EF92FF920F931F937B018C0180E0E4
:1021F000E81680E0F80681E0080780E0180788F418
:102200008FEFE816F1040105110531F028F088E0A0
:1022100090E0A0E0B0E017C080E090E0A0E0B0E087
:1022200012C080E0E81680E0F80680E0080781E050
:10223000180728F088E190E0A0E0B0E004C080E159
:1022400090E0A0E0B0E020E230E040E050E0281B69
:10225000390B4A0B5B0B04C016950795F794E7946E
:102260008A95D2F7F701E65EFE4F8081281B31097F
:1022700041095109C9011F910F91FF90EF900895F5
:10228000DF92EF92FF920F931F93FC01E480F580A1
:1022900006811781D1808081823048F480E090E00F
:1022A000A0E1B0E0E82AF92A0A2B1B2BA5C0843054
:1022B00009F49FC0823021F4EE24FF24870105C079
:1022C000E114F1040105110519F4E0E0F0E096C015
:1022D000628173819FEF623879070CF05BC022E85E
:1022E0003FEF261B370B2A3131052CF020E030E080
:1022F00040E050E02AC0B801A701022E04C0769544
:102300006795579547950A94D2F781E090E0A0E051
:10231000B0E004C0880F991FAA1FBB1F2A95D2F7EF
:102320000197A109B1098E219F21A023B123009714
:10233000A105B10521F081E090E0A0E0B0E09A01B4
:10234000AB01282B392B4A2B5B2BDA01C9018F7784
:102350009070A070B07080349105A105B10539F47A
:1023600027FF09C0205C3F4F4F4F5F4F04C0215CE7
:102370003F4F4F4F5F4FE0E0F0E02030A0E03A07E2
:10238000A0E04A07A0E45A0710F0E1E0F0E079018C
:102390008A0127C06038710564F5FB01E158FF4FE1
:1023A000D801C7018F779070A070B070803491050C
:1023B000A105B10539F4E7FE0DC080E490E0A0E08E
:1023C000B0E004C08FE390E0A0E0B0E0E80EF91EBA
:1023D0000A1F1B1F17FF05C016950795F794E79472
:1023E000319687E016950795F794E7948A95D1F78B
:1023F00005C0EE24FF248701EFEFF0E06E2F679514
:1024000066276795902F9F77D794DD24D7948E2FDA
:102410008695492F462B582F5D29B701CA011F9178
:102420000F91FF90EF90DF900895FC01DB01408158
:1024300051812281622F6F7770E0221F2227221F95
:102440009381892F880F822B282F30E0991F99279D
:10245000991F11969C93119721153105A9F54115E6
:1024600051056105710511F482E037C082E89FEFE4
:1024700013969C938E9312979A01AB0167E0220FFB
:10248000331F441F551F6A95D1F783E08C930DC00D
:10249000220F331F441F551F12968D919C91139745
:1024A000019713969C938E931297203080E0380703
:1024B00080E0480780E4580758F314962D933D9325
:1024C0004D935C93179708952F3F310579F441158B
:1024D00051056105710519F484E08C93089564FF3A
:1024E00003C081E08C9312C01C9210C02F57304063
:1024F00013963C932E93129783E08C9387E0440FBE
:10250000551F661F771F8A95D1F7706414964D93F7
:102510005D936D937C93179708951F93DC01FB01E6
:102520009C91923008F447C08081823008F443C007
:10253000943051F411961C91843099F58181682F63
:1025400070E0611B71093FC0843021F0923031F49A
:102550008230B9F18181882389F12DC011961C91B7
:1025600011978230F1F081811817D9F412962D91CC
:102570003C911397828193818217930794F02817D7
:102580003907BCF014968D919D910D90BC91A02DB2
:102590002481358146815781281739074A075B070F
:1025A00018F4112341F00AC082179307A407B50756
:1025B00040F4112319F061E070E005C06FEF7FEF88
:1025C00002C060E070E0CB011F910895629FD001CE
:1025D000739FF001829FE00DF11D649FE00DF11DDE
:1025E000929FF00D839FF00D749FF00D659FF00D8D
:1025F0009927729FB00DE11DF91F639FB00DE11D7A
:10260000F91FBD01CF01112408952F923F924F92DF
:102610005F926F927F928F929F92AF92BF92CF9272
:10262000DF92EF92FF920F931F93CF93DF93CDB77B
:10263000DEB7CA1BDB0B0FB6F894DEBF0FBECDBFF3
:1026400009942A88398848885F846E847D848C84C4
:102650009B84AA84B984C884DF80EE80FD800C81CD
:102660001B81AA81B981CE0FD11D0FB6F894DEBFB0
:102670000FBECDBFED010895FA01CF93FF93EF9305
:102680002230CCF02532BCF4C22F2C2F3327442724
:102690005527FF93EF930E947113EF91FF91605DB7
:1026A0006A330CF0695D6193B901CA0160507040F2
:1026B0008040904051F710828F919F91CF910C9460
:1026C0006113DC01FC01672F71917723E1F73297E9
:1026D00004C07C916D9370836291AE17BF07C8F3FD
:1026E0000895A1E21A2EAA1BBB1BFD010DC0AA1F53
:1026F000BB1FEE1FFF1FA217B307E407F50720F06B
:10270000A21BB30BE40BF50B661F771F881F991FE5
:102710001A9469F760957095809590959B01AC012E
:0A272000BD01CF010895F894FFCF2A
:10272A00726561647920746F207265636569766584
:10273A000A0000000000000000000001020203037A
:10274A00030304040404040404040505050505053B
:10275A000505050505050505050506060606060619
:10276A0006060606060606060606060606060606FF
:10277A0006060606060606060606070707070707E9
:10278A0007070707070707070707070707070707CF
:10279A0007070707070707070707070707070707BF
:1027AA0007070707070707070707070707070707AF
:1027BA000707070707070707070708080808080899
:1027CA00080808080808080808080808080808087F
:1027DA00080808080808080808080808080808086F
:1027EA00080808080808080808080808080808085F
:1027FA00080808080808080808080808080808084F
:10280A00080808080808080808080808080808083E
:10281A00080808080808080808080808080808082E
:10282A00080808080808080808080808080808081E
:0A283A000808080808080808080844
:00000001FF
